{
  "address": "0x4985154deF7ca37e756FeA330D9E3ce1e7163dB6",
  "abi": [
    {
      "inputs": [
        {
          "internalType": "address",
          "name": "_vrfCoordinator",
          "type": "address"
        },
        {
          "internalType": "address",
          "name": "_linkToken",
          "type": "address"
        },
        {
          "internalType": "bytes32",
          "name": "_keyHash",
          "type": "bytes32"
        },
        {
          "internalType": "uint256",
          "name": "_fee",
          "type": "uint256"
        }
      ],
      "stateMutability": "nonpayable",
      "type": "constructor"
    },
    {
      "anonymous": false,
      "inputs": [
        {
          "indexed": true,
          "internalType": "address",
          "name": "owner",
          "type": "address"
        },
        {
          "indexed": true,
          "internalType": "address",
          "name": "approved",
          "type": "address"
        },
        {
          "indexed": true,
          "internalType": "uint256",
          "name": "tokenId",
          "type": "uint256"
        }
      ],
      "name": "Approval",
      "type": "event"
    },
    {
      "anonymous": false,
      "inputs": [
        {
          "indexed": true,
          "internalType": "address",
          "name": "owner",
          "type": "address"
        },
        {
          "indexed": true,
          "internalType": "address",
          "name": "operator",
          "type": "address"
        },
        {
          "indexed": false,
          "internalType": "bool",
          "name": "approved",
          "type": "bool"
        }
      ],
      "name": "ApprovalForAll",
      "type": "event"
    },
    {
      "anonymous": false,
      "inputs": [
        {
          "indexed": true,
          "internalType": "uint256",
          "name": "tokenId",
          "type": "uint256"
        },
        {
          "indexed": false,
          "internalType": "string",
          "name": "tokenURI",
          "type": "string"
        }
      ],
      "name": "CreatedRandomSVG",
      "type": "event"
    },
    {
      "anonymous": false,
      "inputs": [
        {
          "indexed": true,
          "internalType": "uint256",
          "name": "tokenId",
          "type": "uint256"
        },
        {
          "indexed": false,
          "internalType": "uint256",
          "name": "randomNumber",
          "type": "uint256"
        }
      ],
      "name": "CreatedUnfinishedRandomSVG",
      "type": "event"
    },
    {
      "anonymous": false,
      "inputs": [
        {
          "indexed": true,
          "internalType": "bytes32",
          "name": "requestId",
          "type": "bytes32"
        },
        {
          "indexed": true,
          "internalType": "uint256",
          "name": "tokenId",
          "type": "uint256"
        }
      ],
      "name": "RequestedRandomSVG",
      "type": "event"
    },
    {
      "anonymous": false,
      "inputs": [
        {
          "indexed": true,
          "internalType": "address",
          "name": "from",
          "type": "address"
        },
        {
          "indexed": true,
          "internalType": "address",
          "name": "to",
          "type": "address"
        },
        {
          "indexed": true,
          "internalType": "uint256",
          "name": "tokenId",
          "type": "uint256"
        }
      ],
      "name": "Transfer",
      "type": "event"
    },
    {
      "inputs": [
        {
          "internalType": "address",
          "name": "to",
          "type": "address"
        },
        {
          "internalType": "uint256",
          "name": "tokenId",
          "type": "uint256"
        }
      ],
      "name": "approve",
      "outputs": [],
      "stateMutability": "nonpayable",
      "type": "function"
    },
    {
      "inputs": [
        {
          "internalType": "address",
          "name": "owner",
          "type": "address"
        }
      ],
      "name": "balanceOf",
      "outputs": [
        {
          "internalType": "uint256",
          "name": "",
          "type": "uint256"
        }
      ],
      "stateMutability": "view",
      "type": "function"
    },
    {
      "inputs": [
        {
          "internalType": "uint256",
          "name": "",
          "type": "uint256"
        }
      ],
      "name": "colors",
      "outputs": [
        {
          "internalType": "string",
          "name": "",
          "type": "string"
        }
      ],
      "stateMutability": "view",
      "type": "function"
    },
    {
      "inputs": [],
      "name": "create",
      "outputs": [
        {
          "internalType": "bytes32",
          "name": "requestId",
          "type": "bytes32"
        }
      ],
      "stateMutability": "nonpayable",
      "type": "function"
    },
    {
      "inputs": [
        {
          "internalType": "uint256",
          "name": "_tokenId",
          "type": "uint256"
        }
      ],
      "name": "finishMint",
      "outputs": [],
      "stateMutability": "nonpayable",
      "type": "function"
    },
    {
      "inputs": [
        {
          "internalType": "string",
          "name": "imageURI",
          "type": "string"
        }
      ],
      "name": "formatTokenURI",
      "outputs": [
        {
          "internalType": "string",
          "name": "",
          "type": "string"
        }
      ],
      "stateMutability": "pure",
      "type": "function"
    },
    {
      "inputs": [
        {
          "internalType": "uint256",
          "name": "_randomness",
          "type": "uint256"
        }
      ],
      "name": "generatePath",
      "outputs": [
        {
          "internalType": "string",
          "name": "pathSvg",
          "type": "string"
        }
      ],
      "stateMutability": "view",
      "type": "function"
    },
    {
      "inputs": [
        {
          "internalType": "uint256",
          "name": "_randomness",
          "type": "uint256"
        }
      ],
      "name": "generatePathCommand",
      "outputs": [
        {
          "internalType": "string",
          "name": "pathCommand",
          "type": "string"
        }
      ],
      "stateMutability": "view",
      "type": "function"
    },
    {
      "inputs": [
        {
          "internalType": "uint256",
          "name": "_randomness",
          "type": "uint256"
        }
      ],
      "name": "generateSVG",
      "outputs": [
        {
          "internalType": "string",
          "name": "finalSvg",
          "type": "string"
        }
      ],
      "stateMutability": "view",
      "type": "function"
    },
    {
      "inputs": [
        {
          "internalType": "uint256",
          "name": "tokenId",
          "type": "uint256"
        }
      ],
      "name": "getApproved",
      "outputs": [
        {
          "internalType": "address",
          "name": "",
          "type": "address"
        }
      ],
      "stateMutability": "view",
      "type": "function"
    },
    {
      "inputs": [
        {
          "internalType": "address",
          "name": "owner",
          "type": "address"
        },
        {
          "internalType": "address",
          "name": "operator",
          "type": "address"
        }
      ],
      "name": "isApprovedForAll",
      "outputs": [
        {
          "internalType": "bool",
          "name": "",
          "type": "bool"
        }
      ],
      "stateMutability": "view",
      "type": "function"
    },
    {
      "inputs": [],
      "name": "maxNumberOfPathCommands",
      "outputs": [
        {
          "internalType": "uint256",
          "name": "",
          "type": "uint256"
        }
      ],
      "stateMutability": "view",
      "type": "function"
    },
    {
      "inputs": [],
      "name": "maxNumberOfPaths",
      "outputs": [
        {
          "internalType": "uint256",
          "name": "",
          "type": "uint256"
        }
      ],
      "stateMutability": "view",
      "type": "function"
    },
    {
      "inputs": [],
      "name": "name",
      "outputs": [
        {
          "internalType": "string",
          "name": "",
          "type": "string"
        }
      ],
      "stateMutability": "view",
      "type": "function"
    },
    {
      "inputs": [
        {
          "internalType": "uint256",
          "name": "tokenId",
          "type": "uint256"
        }
      ],
      "name": "ownerOf",
      "outputs": [
        {
          "internalType": "address",
          "name": "",
          "type": "address"
        }
      ],
      "stateMutability": "view",
      "type": "function"
    },
    {
      "inputs": [
        {
          "internalType": "uint256",
          "name": "",
          "type": "uint256"
        }
      ],
      "name": "pathCommands",
      "outputs": [
        {
          "internalType": "string",
          "name": "",
          "type": "string"
        }
      ],
      "stateMutability": "view",
      "type": "function"
    },
    {
      "inputs": [
        {
          "internalType": "bytes32",
          "name": "requestId",
          "type": "bytes32"
        },
        {
          "internalType": "uint256",
          "name": "randomness",
          "type": "uint256"
        }
      ],
      "name": "rawFulfillRandomness",
      "outputs": [],
      "stateMutability": "nonpayable",
      "type": "function"
    },
    {
      "inputs": [
        {
          "internalType": "bytes32",
          "name": "",
          "type": "bytes32"
        }
      ],
      "name": "requestIdToSender",
      "outputs": [
        {
          "internalType": "address",
          "name": "",
          "type": "address"
        }
      ],
      "stateMutability": "view",
      "type": "function"
    },
    {
      "inputs": [
        {
          "internalType": "bytes32",
          "name": "",
          "type": "bytes32"
        }
      ],
      "name": "requestIdToTokenId",
      "outputs": [
        {
          "internalType": "uint256",
          "name": "",
          "type": "uint256"
        }
      ],
      "stateMutability": "view",
      "type": "function"
    },
    {
      "inputs": [
        {
          "internalType": "address",
          "name": "from",
          "type": "address"
        },
        {
          "internalType": "address",
          "name": "to",
          "type": "address"
        },
        {
          "internalType": "uint256",
          "name": "tokenId",
          "type": "uint256"
        }
      ],
      "name": "safeTransferFrom",
      "outputs": [],
      "stateMutability": "nonpayable",
      "type": "function"
    },
    {
      "inputs": [
        {
          "internalType": "address",
          "name": "from",
          "type": "address"
        },
        {
          "internalType": "address",
          "name": "to",
          "type": "address"
        },
        {
          "internalType": "uint256",
          "name": "tokenId",
          "type": "uint256"
        },
        {
          "internalType": "bytes",
          "name": "_data",
          "type": "bytes"
        }
      ],
      "name": "safeTransferFrom",
      "outputs": [],
      "stateMutability": "nonpayable",
      "type": "function"
    },
    {
      "inputs": [
        {
          "internalType": "address",
          "name": "operator",
          "type": "address"
        },
        {
          "internalType": "bool",
          "name": "approved",
          "type": "bool"
        }
      ],
      "name": "setApprovalForAll",
      "outputs": [],
      "stateMutability": "nonpayable",
      "type": "function"
    },
    {
      "inputs": [],
      "name": "size",
      "outputs": [
        {
          "internalType": "uint256",
          "name": "",
          "type": "uint256"
        }
      ],
      "stateMutability": "view",
      "type": "function"
    },
    {
      "inputs": [
        {
          "internalType": "bytes4",
          "name": "interfaceId",
          "type": "bytes4"
        }
      ],
      "name": "supportsInterface",
      "outputs": [
        {
          "internalType": "bool",
          "name": "",
          "type": "bool"
        }
      ],
      "stateMutability": "view",
      "type": "function"
    },
    {
      "inputs": [
        {
          "internalType": "string",
          "name": "svg",
          "type": "string"
        }
      ],
      "name": "svgToImageURI",
      "outputs": [
        {
          "internalType": "string",
          "name": "",
          "type": "string"
        }
      ],
      "stateMutability": "pure",
      "type": "function"
    },
    {
      "inputs": [],
      "name": "symbol",
      "outputs": [
        {
          "internalType": "string",
          "name": "",
          "type": "string"
        }
      ],
      "stateMutability": "view",
      "type": "function"
    },
    {
      "inputs": [],
      "name": "tokenCounter",
      "outputs": [
        {
          "internalType": "uint256",
          "name": "",
          "type": "uint256"
        }
      ],
      "stateMutability": "view",
      "type": "function"
    },
    {
      "inputs": [
        {
          "internalType": "uint256",
          "name": "",
          "type": "uint256"
        }
      ],
      "name": "tokenIdToRandomNumber",
      "outputs": [
        {
          "internalType": "uint256",
          "name": "",
          "type": "uint256"
        }
      ],
      "stateMutability": "view",
      "type": "function"
    },
    {
      "inputs": [
        {
          "internalType": "uint256",
          "name": "tokenId",
          "type": "uint256"
        }
      ],
      "name": "tokenURI",
      "outputs": [
        {
          "internalType": "string",
          "name": "",
          "type": "string"
        }
      ],
      "stateMutability": "view",
      "type": "function"
    },
    {
      "inputs": [
        {
          "internalType": "address",
          "name": "from",
          "type": "address"
        },
        {
          "internalType": "address",
          "name": "to",
          "type": "address"
        },
        {
          "internalType": "uint256",
          "name": "tokenId",
          "type": "uint256"
        }
      ],
      "name": "transferFrom",
      "outputs": [],
      "stateMutability": "nonpayable",
      "type": "function"
    }
  ],
  "transactionHash": "0x072d90273f84f8f8392f6fc3179831263f50fb375309465a61a12309e6283baf",
  "args": [
    "0xb3dCcb4Cf7a26f6cf6B120Cf5A73875B7BBc655B",
    "0x01be23585060835e02b77ef475b0cc51aa1e0709",
    "0x2ed0feb3e7fd2022120aa84fab1945545a9f2ffc9076fd6156fa96eaff4c1311",
    "100000000000000000"
  ],
  "numDeployments": 1,
  "solcInputHash": "d83553892d5b800c4d2d16d7a4a1ce97",
  "bytecode": "0x60c06040523480156200001157600080fd5b50604051620050d0380380620050d08339818101604052810190620000379190620005c3565b83836040518060400160405280600981526020017f52616e646f6d53564700000000000000000000000000000000000000000000008152506040518060400160405280600581526020017f72744e46540000000000000000000000000000000000000000000000000000008152508160009080519060200190620000bd92919062000392565b508060019080519060200190620000d692919062000392565b5050508173ffffffffffffffffffffffffffffffffffffffff1660a08173ffffffffffffffffffffffffffffffffffffffff1660601b815250508073ffffffffffffffffffffffffffffffffffffffff1660808173ffffffffffffffffffffffffffffffffffffffff1660601b8152505050508160098190555080600a819055506000600881905550600a600b819055506005600c819055506101f4600d8190555060405180604001604052806040518060400160405280600181526020017f4d0000000000000000000000000000000000000000000000000000000000000081525081526020016040518060400160405280600181526020017f4c00000000000000000000000000000000000000000000000000000000000000815250815250600e9060026200020992919062000423565b506040518060c001604052806040518060400160405280600381526020017f726564000000000000000000000000000000000000000000000000000000000081525081526020016040518060400160405280600481526020017f626c75650000000000000000000000000000000000000000000000000000000081525081526020016040518060400160405280600581526020017f677265656e00000000000000000000000000000000000000000000000000000081525081526020016040518060400160405280600681526020017f79656c6c6f77000000000000000000000000000000000000000000000000000081525081526020016040518060400160405280600581526020017f626c61636b00000000000000000000000000000000000000000000000000000081525081526020016040518060400160405280600581526020017f7768697465000000000000000000000000000000000000000000000000000000815250815250600f906006620003879291906200048a565b50505050506200072a565b828054620003a09062000677565b90600052602060002090601f016020900481019282620003c4576000855562000410565b82601f10620003df57805160ff191683800117855562000410565b8280016001018555821562000410579182015b828111156200040f578251825591602001919060010190620003f2565b5b5090506200041f9190620004f1565b5090565b82805482825590600052602060002090810192821562000477579160200282015b82811115620004765782518290805190602001906200046592919062000392565b509160200191906001019062000444565b5b50905062000486919062000510565b5090565b828054828255906000526020600020908101928215620004de579160200282015b82811115620004dd578251829080519060200190620004cc92919062000392565b5091602001919060010190620004ab565b5b509050620004ed919062000510565b5090565b5b808211156200050c576000816000905550600101620004f2565b5090565b5b808211156200053457600081816200052a919062000538565b5060010162000511565b5090565b508054620005469062000677565b6000825580601f106200055a57506200057b565b601f0160209004906000526020600020908101906200057a9190620004f1565b5b50565b6000815190506200058f81620006dc565b92915050565b600081519050620005a681620006f6565b92915050565b600081519050620005bd8162000710565b92915050565b60008060008060808587031215620005da57600080fd5b6000620005ea878288016200057e565b9450506020620005fd878288016200057e565b9350506040620006108782880162000595565b92505060606200062387828801620005ac565b91505092959194509250565b60006200063c826200064d565b9050919050565b6000819050919050565b600073ffffffffffffffffffffffffffffffffffffffff82169050919050565b6000819050919050565b600060028204905060018216806200069057607f821691505b60208210811415620006a757620006a6620006ad565b5b50919050565b7f4e487b7100000000000000000000000000000000000000000000000000000000600052602260045260246000fd5b620006e7816200062f565b8114620006f357600080fd5b50565b620007018162000643565b81146200070d57600080fd5b50565b6200071b816200066d565b81146200072757600080fd5b50565b60805160601c60a05160601c6149736200075d600039600081816110fd01526124cd0152600061249101526149736000f3fe608060405234801561001057600080fd5b50600436106101da5760003560e01c806371aee19311610104578063b88d4fde116100a2578063c87b56dd11610071578063c87b56dd146105d9578063d082e38114610609578063e985e9c514610627578063efc81a8c14610657576101da565b8063b88d4fde1461053f578063bd11f69d1461055b578063c21bf36f1461058b578063c68b49d1146105a9576101da565b8063955968d4116100de578063955968d4146104a557806395d89b41146104d55780639c1cd795146104f3578063a22cb46514610523576101da565b806371aee1931461043b57806394985ddd1461046b578063949d225d14610487576101da565b806330d871c61161017c578063624194c71161014b578063624194c71461038f5780636352211e146103ab5780636dcee4ca146103db57806370a082311461040b576101da565b806330d871c6146102f557806333af59891461032557806342842e0e1461035557806348e896ab14610371576101da565b8063095ea7b3116101b8578063095ea7b31461025d578063219c0eee1461027957806322881f88146102a957806323b872dd146102d9576101da565b806301ffc9a7146101df57806306fdde031461020f578063081812fc1461022d575b600080fd5b6101f960048036038101906101f4919061305d565b610675565b60405161020691906138df565b60405180910390f35b610217610757565b6040516102249190613983565b60405180910390f35b610247600480360381019061024291906130f0565b6107e9565b604051610254919061383a565b60405180910390f35b61027760048036038101906102729190612f93565b61086e565b005b610293600480360381019061028e9190612ff8565b610986565b6040516102a0919061383a565b60405180910390f35b6102c360048036038101906102be9190612ff8565b6109b9565b6040516102d09190613c25565b60405180910390f35b6102f360048036038101906102ee9190612e8d565b6109d1565b005b61030f600480360381019061030a91906130af565b610a31565b60405161031c9190613983565b60405180910390f35b61033f600480360381019061033a91906130f0565b610ac4565b60405161034c9190613983565b60405180910390f35b61036f600480360381019061036a9190612e8d565b610cb0565b005b610379610cd0565b6040516103869190613c25565b60405180910390f35b6103a960048036038101906103a491906130f0565b610cd6565b005b6103c560048036038101906103c091906130f0565b610e45565b6040516103d2919061383a565b60405180910390f35b6103f560048036038101906103f091906130f0565b610ef7565b6040516104029190613983565b60405180910390f35b61042560048036038101906104209190612e28565b610ff3565b6040516104329190613c25565b60405180910390f35b610455600480360381019061045091906130af565b6110ab565b6040516104629190613983565b60405180910390f35b61048560048036038101906104809190613021565b6110fb565b005b61048f611197565b60405161049c9190613c25565b60405180910390f35b6104bf60048036038101906104ba91906130f0565b61119d565b6040516104cc9190613983565b60405180910390f35b6104dd611249565b6040516104ea9190613983565b60405180910390f35b61050d600480360381019061050891906130f0565b6112db565b60405161051a9190613c25565b60405180910390f35b61053d60048036038101906105389190612f57565b6112f3565b005b61055960048036038101906105549190612edc565b611309565b005b610575600480360381019061057091906130f0565b61136b565b6040516105829190613983565b60405180910390f35b610593611417565b6040516105a09190613c25565b60405180910390f35b6105c360048036038101906105be91906130f0565b61141d565b6040516105d09190613983565b60405180910390f35b6105f360048036038101906105ee91906130f0565b6115dc565b6040516106009190613983565b60405180910390f35b61061161172e565b60405161061e9190613c25565b60405180910390f35b610641600480360381019061063c9190612e51565b611734565b60405161064e91906138df565b60405180910390f35b61065f6117c8565b60405161066c91906138fa565b60405180910390f35b60007f80ac58cd000000000000000000000000000000000000000000000000000000007bffffffffffffffffffffffffffffffffffffffffffffffffffffffff1916827bffffffffffffffffffffffffffffffffffffffffffffffffffffffff1916148061074057507f5b5e139f000000000000000000000000000000000000000000000000000000007bffffffffffffffffffffffffffffffffffffffffffffffffffffffff1916827bffffffffffffffffffffffffffffffffffffffffffffffffffffffff1916145b80610750575061074f82611892565b5b9050919050565b60606000805461076690613f4c565b80601f016020809104026020016040519081016040528092919081815260200182805461079290613f4c565b80156107df5780601f106107b4576101008083540402835291602001916107df565b820191906000526020600020905b8154815290600101906020018083116107c257829003601f168201915b5050505050905090565b60006107f4826118fc565b610833576040517f08c379a000000000000000000000000000000000000000000000000000000000815260040161082a90613b45565b60405180910390fd5b6004600083815260200190815260200160002060009054906101000a900473ffffffffffffffffffffffffffffffffffffffff169050919050565b600061087982610e45565b90508073ffffffffffffffffffffffffffffffffffffffff168373ffffffffffffffffffffffffffffffffffffffff1614156108ea576040517f08c379a00000000000000000000000000000000000000000000000000000000081526004016108e190613ba5565b60405180910390fd5b8073ffffffffffffffffffffffffffffffffffffffff16610909611968565b73ffffffffffffffffffffffffffffffffffffffff161480610938575061093781610932611968565b611734565b5b610977576040517f08c379a000000000000000000000000000000000000000000000000000000000815260040161096e90613a65565b60405180910390fd5b6109818383611970565b505050565b60106020528060005260406000206000915054906101000a900473ffffffffffffffffffffffffffffffffffffffff1681565b60116020528060005260406000206000915090505481565b6109e26109dc611968565b82611a29565b610a21576040517f08c379a0000000000000000000000000000000000000000000000000000000008152600401610a1890613be5565b60405180910390fd5b610a2c838383611b07565b505050565b606060006040518060400160405280601a81526020017f646174613a696d6167652f7376672b786d6c3b6261736536342c00000000000081525090506000610a9784604051602001610a8391906136b2565b604051602081830303815290604052611d6e565b90508181604051602001610aac9291906136c9565b60405160208183030381529060405292505050919050565b606060006001600c5484610ad8919061400c565b610ae29190613d33565b90506040518060400160405280600981526020017f3c7061746820643d270000000000000000000000000000000000000000000000815250915060005b81811015610ba4576000610b6a8583600d54610b3b9190613d33565b604051602001610b4c929190613c40565b6040516020818303038152906040528051906020012060001c61141d565b90508381604051602001610b7f9291906136c9565b6040516020818303038152906040529350508080610b9c90613faf565b915050610b1f565b506000600f808054905085610bb9919061400c565b81548110610bf0577f4e487b7100000000000000000000000000000000000000000000000000000000600052603260045260246000fd5b906000526020600020018054610c0590613f4c565b80601f0160208091040260200160405190810160405280929190818152602001828054610c3190613f4c565b8015610c7e5780601f10610c5357610100808354040283529160200191610c7e565b820191906000526020600020905b815481529060010190602001808311610c6157829003601f168201915b505050505090508281604051602001610c989291906136ed565b60405160208183030381529060405292505050919050565b610ccb83838360405180602001604052806000815250611309565b505050565b600c5481565b6000610ce1826115dc565b511115610d23576040517f08c379a0000000000000000000000000000000000000000000000000000000008152600401610d1a90613bc5565b60405180910390fd5b8060085411610d67576040517f08c379a0000000000000000000000000000000000000000000000000000000008152600401610d5e90613ae5565b60405180910390fd5b6000601260008381526020019081526020016000205411610dbd576040517f08c379a0000000000000000000000000000000000000000000000000000000008152600401610db490613c05565b60405180910390fd5b6000601260008381526020019081526020016000205490506000610de082610ef7565b90506000610ded82610a31565b90506000610dfa826110ab565b9050610e068582611f0d565b847f15a6487b7915a7116ce2a61d43b17e9b47484b1931f3c79f2f3d139b307b389384604051610e369190613983565b60405180910390a25050505050565b6000806002600084815260200190815260200160002060009054906101000a900473ffffffffffffffffffffffffffffffffffffffff169050600073ffffffffffffffffffffffffffffffffffffffff168173ffffffffffffffffffffffffffffffffffffffff161415610eee576040517f08c379a0000000000000000000000000000000000000000000000000000000008152600401610ee590613aa5565b60405180910390fd5b80915050919050565b606060006001600b5484610f0b919061400c565b610f159190613d33565b9050610f22600d54611f81565b610f2d600d54611f81565b604051602001610f3e9291906137d3565b604051602081830303815290604052915060005b81811015610fca576000610f908583604051602001610f72929190613c40565b6040516020818303038152906040528051906020012060001c610ac4565b90508381604051602001610fa59291906136c9565b6040516020818303038152906040529350508080610fc290613faf565b915050610f52565b5081604051602001610fdc919061376e565b604051602081830303815290604052915050919050565b60008073ffffffffffffffffffffffffffffffffffffffff168273ffffffffffffffffffffffffffffffffffffffff161415611064576040517f08c379a000000000000000000000000000000000000000000000000000000000815260040161105b90613a85565b60405180910390fd5b600360008373ffffffffffffffffffffffffffffffffffffffff1673ffffffffffffffffffffffffffffffffffffffff168152602001908152602001600020549050919050565b60606110d5826040516020016110c19190613790565b604051602081830303815290604052611d6e565b6040516020016110e59190613818565b6040516020818303038152906040529050919050565b7f000000000000000000000000000000000000000000000000000000000000000073ffffffffffffffffffffffffffffffffffffffff163373ffffffffffffffffffffffffffffffffffffffff1614611189576040517f08c379a000000000000000000000000000000000000000000000000000000000815260040161118090613b85565b60405180910390fd5b6111938282612156565b5050565b600d5481565b600e81815481106111ad57600080fd5b9060005260206000200160009150905080546111c890613f4c565b80601f01602080910402602001604051908101604052809291908181526020018280546111f490613f4c565b80156112415780601f1061121657610100808354040283529160200191611241565b820191906000526020600020905b81548152906001019060200180831161122457829003601f168201915b505050505081565b60606001805461125890613f4c565b80601f016020809104026020016040519081016040528092919081815260200182805461128490613f4c565b80156112d15780601f106112a6576101008083540402835291602001916112d1565b820191906000526020600020905b8154815290600101906020018083116112b457829003601f168201915b5050505050905090565b60126020528060005260406000206000915090505481565b6113056112fe611968565b8383612206565b5050565b61131a611314611968565b83611a29565b611359576040517f08c379a000000000000000000000000000000000000000000000000000000000815260040161135090613be5565b60405180910390fd5b61136584848484612373565b50505050565b600f818154811061137b57600080fd5b90600052602060002001600091509050805461139690613f4c565b80601f01602080910402602001604051908101604052809291908181526020018280546113c290613f4c565b801561140f5780601f106113e45761010080835404028352916020019161140f565b820191906000526020600020905b8154815290600101906020018083116113f257829003601f168201915b505050505081565b600b5481565b6060600e808054905083611431919061400c565b81548110611468577f4e487b7100000000000000000000000000000000000000000000000000000000600052603260045260246000fd5b90600052602060002001805461147d90613f4c565b80601f01602080910402602001604051908101604052809291908181526020018280546114a990613f4c565b80156114f65780601f106114cb576101008083540402835291602001916114f6565b820191906000526020600020905b8154815290600101906020018083116114d957829003601f168201915b505050505090506000600d54836002600d546115129190613df1565b604051602001611523929190613c40565b6040516020818303038152906040528051906020012060001c611546919061400c565b90506000600d548460016002600d5461155f9190613df1565b6115699190613d33565b60405160200161157a929190613c40565b6040516020818303038152906040528051906020012060001c61159d919061400c565b9050826115a983611f81565b6115b283611f81565b6040516020016115c493929190613727565b60405160208183030381529060405292505050919050565b60606115e7826118fc565b611626576040517f08c379a000000000000000000000000000000000000000000000000000000000815260040161161d90613b25565b60405180910390fd5b600060066000848152602001908152602001600020805461164690613f4c565b80601f016020809104026020016040519081016040528092919081815260200182805461167290613f4c565b80156116bf5780601f10611694576101008083540402835291602001916116bf565b820191906000526020600020905b8154815290600101906020018083116116a257829003601f168201915b5050505050905060006116d06123cf565b90506000815114156116e6578192505050611729565b60008251111561171b5780826040516020016117039291906136c9565b60405160208183030381529060405292505050611729565b611724846123e6565b925050505b919050565b60085481565b6000600560008473ffffffffffffffffffffffffffffffffffffffff1673ffffffffffffffffffffffffffffffffffffffff16815260200190815260200160002060008373ffffffffffffffffffffffffffffffffffffffff1673ffffffffffffffffffffffffffffffffffffffff16815260200190815260200160002060009054906101000a900460ff16905092915050565b60006117d8600954600a5461248d565b9050336010600083815260200190815260200160002060006101000a81548173ffffffffffffffffffffffffffffffffffffffff021916908373ffffffffffffffffffffffffffffffffffffffff16021790555060006008549050806011600084815260200190815260200160002081905550600160085461185a9190613d33565b60088190555080827fd18cd6f82baac9078af064ea020dd3dc7bff649bd8d50684f972d5995fec6e6960405160405180910390a35090565b60007f01ffc9a7000000000000000000000000000000000000000000000000000000007bffffffffffffffffffffffffffffffffffffffffffffffffffffffff1916827bffffffffffffffffffffffffffffffffffffffffffffffffffffffff1916149050919050565b60008073ffffffffffffffffffffffffffffffffffffffff166002600084815260200190815260200160002060009054906101000a900473ffffffffffffffffffffffffffffffffffffffff1673ffffffffffffffffffffffffffffffffffffffff1614159050919050565b600033905090565b816004600083815260200190815260200160002060006101000a81548173ffffffffffffffffffffffffffffffffffffffff021916908373ffffffffffffffffffffffffffffffffffffffff160217905550808273ffffffffffffffffffffffffffffffffffffffff166119e383610e45565b73ffffffffffffffffffffffffffffffffffffffff167f8c5be1e5ebec7d5bd14f71427d1e84f3dd0314c0f7b2291e5b200ac8c7c3b92560405160405180910390a45050565b6000611a34826118fc565b611a73576040517f08c379a0000000000000000000000000000000000000000000000000000000008152600401611a6a90613a45565b60405180910390fd5b6000611a7e83610e45565b90508073ffffffffffffffffffffffffffffffffffffffff168473ffffffffffffffffffffffffffffffffffffffff161480611aed57508373ffffffffffffffffffffffffffffffffffffffff16611ad5846107e9565b73ffffffffffffffffffffffffffffffffffffffff16145b80611afe5750611afd8185611734565b5b91505092915050565b8273ffffffffffffffffffffffffffffffffffffffff16611b2782610e45565b73ffffffffffffffffffffffffffffffffffffffff1614611b7d576040517f08c379a0000000000000000000000000000000000000000000000000000000008152600401611b74906139c5565b60405180910390fd5b600073ffffffffffffffffffffffffffffffffffffffff168273ffffffffffffffffffffffffffffffffffffffff161415611bed576040517f08c379a0000000000000000000000000000000000000000000000000000000008152600401611be490613a05565b60405180910390fd5b611bf88383836125ef565b611c03600082611970565b6001600360008573ffffffffffffffffffffffffffffffffffffffff1673ffffffffffffffffffffffffffffffffffffffff1681526020019081526020016000206000828254611c539190613e4b565b925050819055506001600360008473ffffffffffffffffffffffffffffffffffffffff1673ffffffffffffffffffffffffffffffffffffffff1681526020019081526020016000206000828254611caa9190613d33565b92505081905550816002600083815260200190815260200160002060006101000a81548173ffffffffffffffffffffffffffffffffffffffff021916908373ffffffffffffffffffffffffffffffffffffffff160217905550808273ffffffffffffffffffffffffffffffffffffffff168473ffffffffffffffffffffffffffffffffffffffff167fddf252ad1be2c89b69c2b068fc378daa952ba7f163c4a11628f55a4df523b3ef60405160405180910390a4611d698383836125f4565b505050565b6060600082511415611d9157604051806020016040528060008152509050611f08565b60006040518060600160405280604081526020016148fe6040913990506000600360028551611dc09190613d33565b611dca9190613dc0565b6004611dd69190613df1565b90506000602082611de79190613d33565b67ffffffffffffffff811115611e26577f4e487b7100000000000000000000000000000000000000000000000000000000600052604160045260246000fd5b6040519080825280601f01601f191660200182016040528015611e585781602001600182028036833780820191505090505b509050818152600183018586518101602084015b81831015611ec7576003830192508251603f8160121c168501518253600182019150603f81600c1c168501518253600182019150603f8160061c168501518253600182019150603f8116850151825360018201915050611e6c565b600389510660018114611ee15760028114611ef157611efc565b613d3d60f01b6002830352611efc565b603d60f81b60018303525b50505050508093505050505b919050565b611f16826118fc565b611f55576040517f08c379a0000000000000000000000000000000000000000000000000000000008152600401611f4c90613ac5565b60405180910390fd5b80600660008481526020019081526020016000209080519060200190611f7c929190612c22565b505050565b60606000821415611fc9576040518060400160405280600181526020017f30000000000000000000000000000000000000000000000000000000000000008152509050612151565b600082905060005b60008214611ffb578080611fe490613faf565b915050600a82611ff49190613dc0565b9150611fd1565b60008167ffffffffffffffff81111561203d577f4e487b7100000000000000000000000000000000000000000000000000000000600052604160045260246000fd5b6040519080825280601f01601f19166020018201604052801561206f5781602001600182028036833780820191505090505b50905060008290505b600086146121495760018161208d9190613e4b565b90506000600a808861209f9190613dc0565b6120a99190613df1565b876120b49190613e4b565b60306120c09190613d89565b905060008160f81b905080848481518110612104577f4e487b7100000000000000000000000000000000000000000000000000000000600052603260045260246000fd5b60200101907effffffffffffffffffffffffffffffffffffffffffffffffffffffffffffff1916908160001a905350600a886121409190613dc0565b97505050612078565b819450505050505b919050565b60006010600084815260200190815260200160002060009054906101000a900473ffffffffffffffffffffffffffffffffffffffff1690506000601160008581526020019081526020016000205490506121b082826125f9565b826012600083815260200190815260200160002081905550807faad5362ce528ed941024b95d4c18dfd49b8503e1f586a5c353631d98c2af41b7846040516121f89190613c25565b60405180910390a250505050565b8173ffffffffffffffffffffffffffffffffffffffff168373ffffffffffffffffffffffffffffffffffffffff161415612275576040517f08c379a000000000000000000000000000000000000000000000000000000000815260040161226c90613a25565b60405180910390fd5b80600560008573ffffffffffffffffffffffffffffffffffffffff1673ffffffffffffffffffffffffffffffffffffffff16815260200190815260200160002060008473ffffffffffffffffffffffffffffffffffffffff1673ffffffffffffffffffffffffffffffffffffffff16815260200190815260200160002060006101000a81548160ff0219169083151502179055508173ffffffffffffffffffffffffffffffffffffffff168373ffffffffffffffffffffffffffffffffffffffff167f17307eab39ab6107e8899845ad3d59bd9653f200f220920489ca2b5937696c318360405161236691906138df565b60405180910390a3505050565b61237e848484611b07565b61238a84848484612617565b6123c9576040517f08c379a00000000000000000000000000000000000000000000000000000000081526004016123c0906139a5565b60405180910390fd5b50505050565b606060405180602001604052806000815250905090565b60606123f1826118fc565b612430576040517f08c379a000000000000000000000000000000000000000000000000000000000815260040161242790613b65565b60405180910390fd5b600061243a6123cf565b9050600081511161245a5760405180602001604052806000815250612485565b80612464846127ae565b6040516020016124759291906136c9565b6040516020818303038152906040525b915050919050565b60007f000000000000000000000000000000000000000000000000000000000000000073ffffffffffffffffffffffffffffffffffffffff16634000aea07f000000000000000000000000000000000000000000000000000000000000000084866000604051602001612501929190613915565b6040516020818303038152906040526040518463ffffffff1660e01b815260040161252e939291906138a1565b602060405180830381600087803b15801561254857600080fd5b505af115801561255c573d6000803e3d6000fd5b505050506040513d601f19601f820116820180604052508101906125809190612fcf565b5060006125a384600030600760008981526020019081526020016000205461295b565b9050600160076000868152602001908152602001600020546125c59190613d33565b60076000868152602001908152602001600020819055506125e68482612997565b91505092915050565b505050565b505050565b6126138282604051806020016040528060008152506129ca565b5050565b60006126388473ffffffffffffffffffffffffffffffffffffffff16612a25565b156127a1578373ffffffffffffffffffffffffffffffffffffffff1663150b7a02612661611968565b8786866040518563ffffffff1660e01b81526004016126839493929190613855565b602060405180830381600087803b15801561269d57600080fd5b505af19250505080156126ce57506040513d601f19601f820116820180604052508101906126cb9190613086565b60015b612751573d80600081146126fe576040519150601f19603f3d011682016040523d82523d6000602084013e612703565b606091505b50600081511415612749576040517f08c379a0000000000000000000000000000000000000000000000000000000008152600401612740906139a5565b60405180910390fd5b805181602001fd5b63150b7a0260e01b7bffffffffffffffffffffffffffffffffffffffffffffffffffffffff1916817bffffffffffffffffffffffffffffffffffffffffffffffffffffffff1916149150506127a6565b600190505b949350505050565b606060008214156127f6576040518060400160405280600181526020017f30000000000000000000000000000000000000000000000000000000000000008152509050612956565b600082905060005b6000821461282857808061281190613faf565b915050600a826128219190613dc0565b91506127fe565b60008167ffffffffffffffff81111561286a577f4e487b7100000000000000000000000000000000000000000000000000000000600052604160045260246000fd5b6040519080825280601f01601f19166020018201604052801561289c5781602001600182028036833780820191505090505b5090505b6000851461294f576001826128b59190613e4b565b9150600a856128c4919061400c565b60306128d09190613d33565b60f81b81838151811061290c577f4e487b7100000000000000000000000000000000000000000000000000000000600052603260045260246000fd5b60200101907effffffffffffffffffffffffffffffffffffffffffffffffffffffffffffff1916908160001a905350600a856129489190613dc0565b94506128a0565b8093505050505b919050565b600084848484604051602001612974949392919061393e565b6040516020818303038152906040528051906020012060001c9050949350505050565b600082826040516020016129ac929190613686565b60405160208183030381529060405280519060200120905092915050565b6129d48383612a48565b6129e16000848484612617565b612a20576040517f08c379a0000000000000000000000000000000000000000000000000000000008152600401612a17906139a5565b60405180910390fd5b505050565b6000808273ffffffffffffffffffffffffffffffffffffffff163b119050919050565b600073ffffffffffffffffffffffffffffffffffffffff168273ffffffffffffffffffffffffffffffffffffffff161415612ab8576040517f08c379a0000000000000000000000000000000000000000000000000000000008152600401612aaf90613b05565b60405180910390fd5b612ac1816118fc565b15612b01576040517f08c379a0000000000000000000000000000000000000000000000000000000008152600401612af8906139e5565b60405180910390fd5b612b0d600083836125ef565b6001600360008473ffffffffffffffffffffffffffffffffffffffff1673ffffffffffffffffffffffffffffffffffffffff1681526020019081526020016000206000828254612b5d9190613d33565b92505081905550816002600083815260200190815260200160002060006101000a81548173ffffffffffffffffffffffffffffffffffffffff021916908373ffffffffffffffffffffffffffffffffffffffff160217905550808273ffffffffffffffffffffffffffffffffffffffff16600073ffffffffffffffffffffffffffffffffffffffff167fddf252ad1be2c89b69c2b068fc378daa952ba7f163c4a11628f55a4df523b3ef60405160405180910390a4612c1e600083836125f4565b5050565b828054612c2e90613f4c565b90600052602060002090601f016020900481019282612c505760008555612c97565b82601f10612c6957805160ff1916838001178555612c97565b82800160010185558215612c97579182015b82811115612c96578251825591602001919060010190612c7b565b5b509050612ca49190612ca8565b5090565b5b80821115612cc1576000816000905550600101612ca9565b5090565b6000612cd8612cd384613c8e565b613c69565b905082815260208101848484011115612cf057600080fd5b612cfb848285613f0a565b509392505050565b6000612d16612d1184613cbf565b613c69565b905082815260208101848484011115612d2e57600080fd5b612d39848285613f0a565b509392505050565b600081359050612d508161488a565b92915050565b600081359050612d65816148a1565b92915050565b600081519050612d7a816148a1565b92915050565b600081359050612d8f816148b8565b92915050565b600081359050612da4816148cf565b92915050565b600081519050612db9816148cf565b92915050565b600082601f830112612dd057600080fd5b8135612de0848260208601612cc5565b91505092915050565b600082601f830112612dfa57600080fd5b8135612e0a848260208601612d03565b91505092915050565b600081359050612e22816148e6565b92915050565b600060208284031215612e3a57600080fd5b6000612e4884828501612d41565b91505092915050565b60008060408385031215612e6457600080fd5b6000612e7285828601612d41565b9250506020612e8385828601612d41565b9150509250929050565b600080600060608486031215612ea257600080fd5b6000612eb086828701612d41565b9350506020612ec186828701612d41565b9250506040612ed286828701612e13565b9150509250925092565b60008060008060808587031215612ef257600080fd5b6000612f0087828801612d41565b9450506020612f1187828801612d41565b9350506040612f2287828801612e13565b925050606085013567ffffffffffffffff811115612f3f57600080fd5b612f4b87828801612dbf565b91505092959194509250565b60008060408385031215612f6a57600080fd5b6000612f7885828601612d41565b9250506020612f8985828601612d56565b9150509250929050565b60008060408385031215612fa657600080fd5b6000612fb485828601612d41565b9250506020612fc585828601612e13565b9150509250929050565b600060208284031215612fe157600080fd5b6000612fef84828501612d6b565b91505092915050565b60006020828403121561300a57600080fd5b600061301884828501612d80565b91505092915050565b6000806040838503121561303457600080fd5b600061304285828601612d80565b925050602061305385828601612e13565b9150509250929050565b60006020828403121561306f57600080fd5b600061307d84828501612d95565b91505092915050565b60006020828403121561309857600080fd5b60006130a684828501612daa565b91505092915050565b6000602082840312156130c157600080fd5b600082013567ffffffffffffffff8111156130db57600080fd5b6130e784828501612de9565b91505092915050565b60006020828403121561310257600080fd5b600061311084828501612e13565b91505092915050565b61312281613e7f565b82525050565b61313181613e91565b82525050565b61314081613e9d565b82525050565b61315761315282613e9d565b613ff8565b82525050565b600061316882613cf0565b6131728185613d06565b9350613182818560208601613f19565b61318b816140f9565b840191505092915050565b60006131a182613cfb565b6131ab8185613d17565b93506131bb818560208601613f19565b6131c4816140f9565b840191505092915050565b60006131da82613cfb565b6131e48185613d28565b93506131f4818560208601613f19565b80840191505092915050565b600061320d600983613d28565b91506132188261410a565b600982019050919050565b6000613230603283613d17565b915061323b82614133565b604082019050919050565b6000613253602583613d17565b915061325e82614182565b604082019050919050565b6000613276601c83613d17565b9150613281826141d1565b602082019050919050565b6000613299602483613d17565b91506132a4826141fa565b604082019050919050565b60006132bc601983613d17565b91506132c782614249565b602082019050919050565b60006132df602c83613d17565b91506132ea82614272565b604082019050919050565b6000613302601d83613d28565b915061330d826142c1565b601d82019050919050565b6000613325600183613d28565b9150613330826142ea565b600182019050919050565b6000613348600383613d28565b915061335382614313565b600382019050919050565b600061336b600783613d28565b91506133768261433c565b600782019050919050565b600061338e603883613d17565b915061339982614365565b604082019050919050565b60006133b1602a83613d17565b91506133bc826143b4565b604082019050919050565b60006133d4602983613d17565b91506133df82614403565b604082019050919050565b60006133f7602e83613d17565b915061340282614452565b604082019050919050565b600061341a602083613d17565b9150613425826144a1565b602082019050919050565b600061343d600283613d28565b9150613448826144ca565b600282019050919050565b6000613460602083613d17565b915061346b826144f3565b602082019050919050565b6000613483603183613d17565b915061348e8261451c565b604082019050919050565b60006134a6602c83613d17565b91506134b18261456b565b604082019050919050565b60006134c9603083613d28565b91506134d4826145ba565b603082019050919050565b60006134ec602f83613d17565b91506134f782614609565b604082019050919050565b600061350f601f83613d17565b915061351a82614658565b602082019050919050565b6000613532604383613d28565b915061353d82614681565b604382019050919050565b6000613555602183613d17565b9150613560826146f6565b604082019050919050565b6000613578601c83613d17565b915061358382614745565b602082019050919050565b600061359b601d83613d28565b91506135a68261476e565b601d82019050919050565b60006135be603183613d17565b91506135c982614797565b604082019050919050565b60006135e1600283613d28565b91506135ec826147e6565b600282019050919050565b6000613604600683613d28565b915061360f8261480f565b600682019050919050565b6000613627601e83613d17565b915061363282614838565b602082019050919050565b600061364a600983613d28565b915061365582614861565b600982019050919050565b61366981613ef3565b82525050565b61368061367b82613ef3565b614002565b82525050565b60006136928285613146565b6020820191506136a2828461366f565b6020820191508190509392505050565b60006136be82846131cf565b915081905092915050565b60006136d582856131cf565b91506136e182846131cf565b91508190509392505050565b60006136f982856131cf565b9150613704826132f5565b915061371082846131cf565b915061371b8261333b565b91508190509392505050565b600061373382866131cf565b915061373e82613318565b915061374a82856131cf565b915061375582613318565b915061376182846131cf565b9150819050949350505050565b600061377a82846131cf565b9150613785826135f7565b915081905092915050565b600061379b82613200565b91506137a68261335e565b91506137b182613525565b91506137bd82846131cf565b91506137c882613430565b915081905092915050565b60006137de826134bc565b91506137ea82856131cf565b91506137f58261363d565b915061380182846131cf565b915061380c826135d4565b91508190509392505050565b60006138238261358e565b915061382f82846131cf565b915081905092915050565b600060208201905061384f6000830184613119565b92915050565b600060808201905061386a6000830187613119565b6138776020830186613119565b6138846040830185613660565b8181036060830152613896818461315d565b905095945050505050565b60006060820190506138b66000830186613119565b6138c36020830185613660565b81810360408301526138d5818461315d565b9050949350505050565b60006020820190506138f46000830184613128565b92915050565b600060208201905061390f6000830184613137565b92915050565b600060408201905061392a6000830185613137565b6139376020830184613660565b9392505050565b60006080820190506139536000830187613137565b6139606020830186613660565b61396d6040830185613119565b61397a6060830184613660565b95945050505050565b6000602082019050818103600083015261399d8184613196565b905092915050565b600060208201905081810360008301526139be81613223565b9050919050565b600060208201905081810360008301526139de81613246565b9050919050565b600060208201905081810360008301526139fe81613269565b9050919050565b60006020820190508181036000830152613a1e8161328c565b9050919050565b60006020820190508181036000830152613a3e816132af565b9050919050565b60006020820190508181036000830152613a5e816132d2565b9050919050565b60006020820190508181036000830152613a7e81613381565b9050919050565b60006020820190508181036000830152613a9e816133a4565b9050919050565b60006020820190508181036000830152613abe816133c7565b9050919050565b60006020820190508181036000830152613ade816133ea565b9050919050565b60006020820190508181036000830152613afe8161340d565b9050919050565b60006020820190508181036000830152613b1e81613453565b9050919050565b60006020820190508181036000830152613b3e81613476565b9050919050565b60006020820190508181036000830152613b5e81613499565b9050919050565b60006020820190508181036000830152613b7e816134df565b9050919050565b60006020820190508181036000830152613b9e81613502565b9050919050565b60006020820190508181036000830152613bbe81613548565b9050919050565b60006020820190508181036000830152613bde8161356b565b9050919050565b60006020820190508181036000830152613bfe816135b1565b9050919050565b60006020820190508181036000830152613c1e8161361a565b9050919050565b6000602082019050613c3a6000830184613660565b92915050565b6000604082019050613c556000830185613660565b613c626020830184613660565b9392505050565b6000613c73613c84565b9050613c7f8282613f7e565b919050565b6000604051905090565b600067ffffffffffffffff821115613ca957613ca86140ca565b5b613cb2826140f9565b9050602081019050919050565b600067ffffffffffffffff821115613cda57613cd96140ca565b5b613ce3826140f9565b9050602081019050919050565b600081519050919050565b600081519050919050565b600082825260208201905092915050565b600082825260208201905092915050565b600081905092915050565b6000613d3e82613ef3565b9150613d4983613ef3565b9250827fffffffffffffffffffffffffffffffffffffffffffffffffffffffffffffffff03821115613d7e57613d7d61403d565b5b828201905092915050565b6000613d9482613efd565b9150613d9f83613efd565b92508260ff03821115613db557613db461403d565b5b828201905092915050565b6000613dcb82613ef3565b9150613dd683613ef3565b925082613de657613de561406c565b5b828204905092915050565b6000613dfc82613ef3565b9150613e0783613ef3565b9250817fffffffffffffffffffffffffffffffffffffffffffffffffffffffffffffffff0483118215151615613e4057613e3f61403d565b5b828202905092915050565b6000613e5682613ef3565b9150613e6183613ef3565b925082821015613e7457613e7361403d565b5b828203905092915050565b6000613e8a82613ed3565b9050919050565b60008115159050919050565b6000819050919050565b60007fffffffff0000000000000000000000000000000000000000000000000000000082169050919050565b600073ffffffffffffffffffffffffffffffffffffffff82169050919050565b6000819050919050565b600060ff82169050919050565b82818337600083830152505050565b60005b83811015613f37578082015181840152602081019050613f1c565b83811115613f46576000848401525b50505050565b60006002820490506001821680613f6457607f821691505b60208210811415613f7857613f7761409b565b5b50919050565b613f87826140f9565b810181811067ffffffffffffffff82111715613fa657613fa56140ca565b5b80604052505050565b6000613fba82613ef3565b91507fffffffffffffffffffffffffffffffffffffffffffffffffffffffffffffffff821415613fed57613fec61403d565b5b600182019050919050565b6000819050919050565b6000819050919050565b600061401782613ef3565b915061402283613ef3565b9250826140325761403161406c565b5b828206905092915050565b7f4e487b7100000000000000000000000000000000000000000000000000000000600052601160045260246000fd5b7f4e487b7100000000000000000000000000000000000000000000000000000000600052601260045260246000fd5b7f4e487b7100000000000000000000000000000000000000000000000000000000600052602260045260246000fd5b7f4e487b7100000000000000000000000000000000000000000000000000000000600052604160045260246000fd5b6000601f19601f8301169050919050565b7f7b226e616d65223a220000000000000000000000000000000000000000000000600082015250565b7f4552433732313a207472616e7366657220746f206e6f6e20455243373231526560008201527f63656976657220696d706c656d656e7465720000000000000000000000000000602082015250565b7f4552433732313a207472616e736665722066726f6d20696e636f72726563742060008201527f6f776e6572000000000000000000000000000000000000000000000000000000602082015250565b7f4552433732313a20746f6b656e20616c7265616479206d696e74656400000000600082015250565b7f4552433732313a207472616e7366657220746f20746865207a65726f2061646460008201527f7265737300000000000000000000000000000000000000000000000000000000602082015250565b7f4552433732313a20617070726f766520746f2063616c6c657200000000000000600082015250565b7f4552433732313a206f70657261746f7220717565727920666f72206e6f6e657860008201527f697374656e7420746f6b656e0000000000000000000000000000000000000000602082015250565b7f272066696c6c3d277472616e73706172656e7427207374726f6b653d27000000600082015250565b7f2000000000000000000000000000000000000000000000000000000000000000600082015250565b7f272f3e0000000000000000000000000000000000000000000000000000000000600082015250565b7f535647204e465400000000000000000000000000000000000000000000000000600082015250565b7f4552433732313a20617070726f76652063616c6c6572206973206e6f74206f7760008201527f6e6572206e6f7220617070726f76656420666f7220616c6c0000000000000000602082015250565b7f4552433732313a2062616c616e636520717565727920666f7220746865207a6560008201527f726f206164647265737300000000000000000000000000000000000000000000602082015250565b7f4552433732313a206f776e657220717565727920666f72206e6f6e657869737460008201527f656e7420746f6b656e0000000000000000000000000000000000000000000000602082015250565b7f45524337323155524953746f726167653a2055524920736574206f66206e6f6e60008201527f6578697374656e7420746f6b656e000000000000000000000000000000000000602082015250565b7f546f6b656e496420686173206e6f74206265656e206d696e7465642079657421600082015250565b7f227d000000000000000000000000000000000000000000000000000000000000600082015250565b7f4552433732313a206d696e7420746f20746865207a65726f2061646472657373600082015250565b7f45524337323155524953746f726167653a2055524920717565727920666f722060008201527f6e6f6e6578697374656e7420746f6b656e000000000000000000000000000000602082015250565b7f4552433732313a20617070726f76656420717565727920666f72206e6f6e657860008201527f697374656e7420746f6b656e0000000000000000000000000000000000000000602082015250565b7f3c73766720786d6c6e733d27687474703a2f2f7777772e77332e6f72672f323060008201527f30302f73766727206865696768743d2700000000000000000000000000000000602082015250565b7f4552433732314d657461646174613a2055524920717565727920666f72206e6f60008201527f6e6578697374656e7420746f6b656e0000000000000000000000000000000000602082015250565b7f4f6e6c7920565246436f6f7264696e61746f722063616e2066756c66696c6c00600082015250565b7f222c20226465736372697074696f6e223a22416e204e4654206261736564206f60008201527f6e2053564721222c202261747472696275746573223a22222c2022696d61676560208201527f223a220000000000000000000000000000000000000000000000000000000000604082015250565b7f4552433732313a20617070726f76616c20746f2063757272656e74206f776e6560008201527f7200000000000000000000000000000000000000000000000000000000000000602082015250565b7f746f6b656e55524920697320616c726561647920616c6c207365742100000000600082015250565b7f646174613a6170706c69636174696f6e2f6a736f6e3b6261736536342c000000600082015250565b7f4552433732313a207472616e736665722063616c6c6572206973206e6f74206f60008201527f776e6572206e6f7220617070726f766564000000000000000000000000000000602082015250565b7f273e000000000000000000000000000000000000000000000000000000000000600082015250565b7f3c2f7376673e0000000000000000000000000000000000000000000000000000600082015250565b7f4e65656420746f207761697420666f7220436861696e6c696e6b205652460000600082015250565b7f272077696474683d270000000000000000000000000000000000000000000000600082015250565b61489381613e7f565b811461489e57600080fd5b50565b6148aa81613e91565b81146148b557600080fd5b50565b6148c181613e9d565b81146148cc57600080fd5b50565b6148d881613ea7565b81146148e357600080fd5b50565b6148ef81613ef3565b81146148fa57600080fd5b5056fe4142434445464748494a4b4c4d4e4f505152535455565758595a6162636465666768696a6b6c6d6e6f707172737475767778797a303132333435363738392b2fa2646970667358221220b905f7b7c4155dcd7f75b070c2b63cd638dbdc787440beb6a65e6d0482b67da464736f6c63430008040033",
  "devdoc": {
    "kind": "dev",
    "methods": {
      "approve(address,uint256)": {
        "details": "See {IERC721-approve}."
      },
      "balanceOf(address)": {
        "details": "See {IERC721-balanceOf}."
      },
      "getApproved(uint256)": {
        "details": "See {IERC721-getApproved}."
      },
      "isApprovedForAll(address,address)": {
        "details": "See {IERC721-isApprovedForAll}."
      },
      "name()": {
        "details": "See {IERC721Metadata-name}."
      },
      "ownerOf(uint256)": {
        "details": "See {IERC721-ownerOf}."
      },
      "safeTransferFrom(address,address,uint256)": {
        "details": "See {IERC721-safeTransferFrom}."
      },
      "safeTransferFrom(address,address,uint256,bytes)": {
        "details": "See {IERC721-safeTransferFrom}."
      },
      "setApprovalForAll(address,bool)": {
        "details": "See {IERC721-setApprovalForAll}."
      },
      "supportsInterface(bytes4)": {
        "details": "See {IERC165-supportsInterface}."
      },
      "symbol()": {
        "details": "See {IERC721Metadata-symbol}."
      },
      "tokenURI(uint256)": {
        "details": "See {IERC721Metadata-tokenURI}."
      },
      "transferFrom(address,address,uint256)": {
        "details": "See {IERC721-transferFrom}."
      }
    },
    "version": 1
  },
  "userdoc": {
    "kind": "user",
    "methods": {},
    "version": 1
  },
  "storageLayout": {
    "storage": [
      {
        "astId": 291,
        "contract": "contracts/RandomSVG.sol:RandomSVG",
        "label": "_name",
        "offset": 0,
        "slot": "0",
        "type": "t_string_storage"
      },
      {
        "astId": 293,
        "contract": "contracts/RandomSVG.sol:RandomSVG",
        "label": "_symbol",
        "offset": 0,
        "slot": "1",
        "type": "t_string_storage"
      },
      {
        "astId": 297,
        "contract": "contracts/RandomSVG.sol:RandomSVG",
        "label": "_owners",
        "offset": 0,
        "slot": "2",
        "type": "t_mapping(t_uint256,t_address)"
      },
      {
        "astId": 301,
        "contract": "contracts/RandomSVG.sol:RandomSVG",
        "label": "_balances",
        "offset": 0,
        "slot": "3",
        "type": "t_mapping(t_address,t_uint256)"
      },
      {
        "astId": 305,
        "contract": "contracts/RandomSVG.sol:RandomSVG",
        "label": "_tokenApprovals",
        "offset": 0,
        "slot": "4",
        "type": "t_mapping(t_uint256,t_address)"
      },
      {
        "astId": 311,
        "contract": "contracts/RandomSVG.sol:RandomSVG",
        "label": "_operatorApprovals",
        "offset": 0,
        "slot": "5",
        "type": "t_mapping(t_address,t_mapping(t_address,t_bool))"
      },
      {
        "astId": 1278,
        "contract": "contracts/RandomSVG.sol:RandomSVG",
        "label": "_tokenURIs",
        "offset": 0,
        "slot": "6",
        "type": "t_mapping(t_uint256,t_string_storage)"
      },
      {
        "astId": 79,
        "contract": "contracts/RandomSVG.sol:RandomSVG",
        "label": "nonces",
        "offset": 0,
        "slot": "7",
        "type": "t_mapping(t_bytes32,t_uint256)"
      },
      {
        "astId": 2102,
        "contract": "contracts/RandomSVG.sol:RandomSVG",
        "label": "tokenCounter",
        "offset": 0,
        "slot": "8",
        "type": "t_uint256"
      },
      {
        "astId": 2104,
        "contract": "contracts/RandomSVG.sol:RandomSVG",
        "label": "keyHash",
        "offset": 0,
        "slot": "9",
        "type": "t_bytes32"
      },
      {
        "astId": 2106,
        "contract": "contracts/RandomSVG.sol:RandomSVG",
        "label": "fee",
        "offset": 0,
        "slot": "10",
        "type": "t_uint256"
      },
      {
        "astId": 2108,
        "contract": "contracts/RandomSVG.sol:RandomSVG",
        "label": "maxNumberOfPaths",
        "offset": 0,
        "slot": "11",
        "type": "t_uint256"
      },
      {
        "astId": 2110,
        "contract": "contracts/RandomSVG.sol:RandomSVG",
        "label": "maxNumberOfPathCommands",
        "offset": 0,
        "slot": "12",
        "type": "t_uint256"
      },
      {
        "astId": 2112,
        "contract": "contracts/RandomSVG.sol:RandomSVG",
        "label": "size",
        "offset": 0,
        "slot": "13",
        "type": "t_uint256"
      },
      {
        "astId": 2115,
        "contract": "contracts/RandomSVG.sol:RandomSVG",
        "label": "pathCommands",
        "offset": 0,
        "slot": "14",
        "type": "t_array(t_string_storage)dyn_storage"
      },
      {
        "astId": 2118,
        "contract": "contracts/RandomSVG.sol:RandomSVG",
        "label": "colors",
        "offset": 0,
        "slot": "15",
        "type": "t_array(t_string_storage)dyn_storage"
      },
      {
        "astId": 2122,
        "contract": "contracts/RandomSVG.sol:RandomSVG",
        "label": "requestIdToSender",
        "offset": 0,
        "slot": "16",
        "type": "t_mapping(t_bytes32,t_address)"
      },
      {
        "astId": 2126,
        "contract": "contracts/RandomSVG.sol:RandomSVG",
        "label": "requestIdToTokenId",
        "offset": 0,
        "slot": "17",
        "type": "t_mapping(t_bytes32,t_uint256)"
      },
      {
        "astId": 2130,
        "contract": "contracts/RandomSVG.sol:RandomSVG",
        "label": "tokenIdToRandomNumber",
        "offset": 0,
        "slot": "18",
        "type": "t_mapping(t_uint256,t_uint256)"
      }
    ],
    "types": {
      "t_address": {
        "encoding": "inplace",
        "label": "address",
        "numberOfBytes": "20"
      },
      "t_array(t_string_storage)dyn_storage": {
        "base": "t_string_storage",
        "encoding": "dynamic_array",
        "label": "string[]",
        "numberOfBytes": "32"
      },
      "t_bool": {
        "encoding": "inplace",
        "label": "bool",
        "numberOfBytes": "1"
      },
      "t_bytes32": {
        "encoding": "inplace",
        "label": "bytes32",
        "numberOfBytes": "32"
      },
      "t_mapping(t_address,t_bool)": {
        "encoding": "mapping",
        "key": "t_address",
        "label": "mapping(address => bool)",
        "numberOfBytes": "32",
        "value": "t_bool"
      },
      "t_mapping(t_address,t_mapping(t_address,t_bool))": {
        "encoding": "mapping",
        "key": "t_address",
        "label": "mapping(address => mapping(address => bool))",
        "numberOfBytes": "32",
        "value": "t_mapping(t_address,t_bool)"
      },
      "t_mapping(t_address,t_uint256)": {
        "encoding": "mapping",
        "key": "t_address",
        "label": "mapping(address => uint256)",
        "numberOfBytes": "32",
        "value": "t_uint256"
      },
      "t_mapping(t_bytes32,t_address)": {
        "encoding": "mapping",
        "key": "t_bytes32",
        "label": "mapping(bytes32 => address)",
        "numberOfBytes": "32",
        "value": "t_address"
      },
      "t_mapping(t_bytes32,t_uint256)": {
        "encoding": "mapping",
        "key": "t_bytes32",
        "label": "mapping(bytes32 => uint256)",
        "numberOfBytes": "32",
        "value": "t_uint256"
      },
      "t_mapping(t_uint256,t_address)": {
        "encoding": "mapping",
        "key": "t_uint256",
        "label": "mapping(uint256 => address)",
        "numberOfBytes": "32",
        "value": "t_address"
      },
      "t_mapping(t_uint256,t_string_storage)": {
        "encoding": "mapping",
        "key": "t_uint256",
        "label": "mapping(uint256 => string)",
        "numberOfBytes": "32",
        "value": "t_string_storage"
      },
      "t_mapping(t_uint256,t_uint256)": {
        "encoding": "mapping",
        "key": "t_uint256",
        "label": "mapping(uint256 => uint256)",
        "numberOfBytes": "32",
        "value": "t_uint256"
      },
      "t_string_storage": {
        "encoding": "bytes",
        "label": "string",
        "numberOfBytes": "32"
      },
      "t_uint256": {
        "encoding": "inplace",
        "label": "uint256",
        "numberOfBytes": "32"
      }
    }
  }
}