{
  "address": "0x784658D86F5d15e6a1d64D89069586D0F14F70A5",
  "abi": [
    {
      "inputs": [],
      "stateMutability": "nonpayable",
      "type": "constructor"
    },
    {
      "anonymous": false,
      "inputs": [
        {
          "indexed": true,
          "internalType": "address",
          "name": "owner",
          "type": "address"
        },
        {
          "indexed": true,
          "internalType": "address",
          "name": "approved",
          "type": "address"
        },
        {
          "indexed": true,
          "internalType": "uint256",
          "name": "tokenId",
          "type": "uint256"
        }
      ],
      "name": "Approval",
      "type": "event"
    },
    {
      "anonymous": false,
      "inputs": [
        {
          "indexed": true,
          "internalType": "address",
          "name": "owner",
          "type": "address"
        },
        {
          "indexed": true,
          "internalType": "address",
          "name": "operator",
          "type": "address"
        },
        {
          "indexed": false,
          "internalType": "bool",
          "name": "approved",
          "type": "bool"
        }
      ],
      "name": "ApprovalForAll",
      "type": "event"
    },
    {
      "anonymous": false,
      "inputs": [
        {
          "indexed": true,
          "internalType": "uint256",
          "name": "tokenId",
          "type": "uint256"
        },
        {
          "indexed": false,
          "internalType": "string",
          "name": "tokenURI",
          "type": "string"
        }
      ],
      "name": "CreatedSVGNFT",
      "type": "event"
    },
    {
      "anonymous": false,
      "inputs": [
        {
          "indexed": true,
          "internalType": "address",
          "name": "from",
          "type": "address"
        },
        {
          "indexed": true,
          "internalType": "address",
          "name": "to",
          "type": "address"
        },
        {
          "indexed": true,
          "internalType": "uint256",
          "name": "tokenId",
          "type": "uint256"
        }
      ],
      "name": "Transfer",
      "type": "event"
    },
    {
      "inputs": [
        {
          "internalType": "address",
          "name": "to",
          "type": "address"
        },
        {
          "internalType": "uint256",
          "name": "tokenId",
          "type": "uint256"
        }
      ],
      "name": "approve",
      "outputs": [],
      "stateMutability": "nonpayable",
      "type": "function"
    },
    {
      "inputs": [
        {
          "internalType": "address",
          "name": "owner",
          "type": "address"
        }
      ],
      "name": "balanceOf",
      "outputs": [
        {
          "internalType": "uint256",
          "name": "",
          "type": "uint256"
        }
      ],
      "stateMutability": "view",
      "type": "function"
    },
    {
      "inputs": [
        {
          "internalType": "string",
          "name": "_svg",
          "type": "string"
        }
      ],
      "name": "create",
      "outputs": [],
      "stateMutability": "nonpayable",
      "type": "function"
    },
    {
      "inputs": [
        {
          "internalType": "string",
          "name": "_imageURI",
          "type": "string"
        }
      ],
      "name": "formatTokenURI",
      "outputs": [
        {
          "internalType": "string",
          "name": "",
          "type": "string"
        }
      ],
      "stateMutability": "pure",
      "type": "function"
    },
    {
      "inputs": [
        {
          "internalType": "uint256",
          "name": "tokenId",
          "type": "uint256"
        }
      ],
      "name": "getApproved",
      "outputs": [
        {
          "internalType": "address",
          "name": "",
          "type": "address"
        }
      ],
      "stateMutability": "view",
      "type": "function"
    },
    {
      "inputs": [
        {
          "internalType": "address",
          "name": "owner",
          "type": "address"
        },
        {
          "internalType": "address",
          "name": "operator",
          "type": "address"
        }
      ],
      "name": "isApprovedForAll",
      "outputs": [
        {
          "internalType": "bool",
          "name": "",
          "type": "bool"
        }
      ],
      "stateMutability": "view",
      "type": "function"
    },
    {
      "inputs": [],
      "name": "name",
      "outputs": [
        {
          "internalType": "string",
          "name": "",
          "type": "string"
        }
      ],
      "stateMutability": "view",
      "type": "function"
    },
    {
      "inputs": [
        {
          "internalType": "uint256",
          "name": "tokenId",
          "type": "uint256"
        }
      ],
      "name": "ownerOf",
      "outputs": [
        {
          "internalType": "address",
          "name": "",
          "type": "address"
        }
      ],
      "stateMutability": "view",
      "type": "function"
    },
    {
      "inputs": [
        {
          "internalType": "address",
          "name": "from",
          "type": "address"
        },
        {
          "internalType": "address",
          "name": "to",
          "type": "address"
        },
        {
          "internalType": "uint256",
          "name": "tokenId",
          "type": "uint256"
        }
      ],
      "name": "safeTransferFrom",
      "outputs": [],
      "stateMutability": "nonpayable",
      "type": "function"
    },
    {
      "inputs": [
        {
          "internalType": "address",
          "name": "from",
          "type": "address"
        },
        {
          "internalType": "address",
          "name": "to",
          "type": "address"
        },
        {
          "internalType": "uint256",
          "name": "tokenId",
          "type": "uint256"
        },
        {
          "internalType": "bytes",
          "name": "_data",
          "type": "bytes"
        }
      ],
      "name": "safeTransferFrom",
      "outputs": [],
      "stateMutability": "nonpayable",
      "type": "function"
    },
    {
      "inputs": [
        {
          "internalType": "address",
          "name": "operator",
          "type": "address"
        },
        {
          "internalType": "bool",
          "name": "approved",
          "type": "bool"
        }
      ],
      "name": "setApprovalForAll",
      "outputs": [],
      "stateMutability": "nonpayable",
      "type": "function"
    },
    {
      "inputs": [
        {
          "internalType": "bytes4",
          "name": "interfaceId",
          "type": "bytes4"
        }
      ],
      "name": "supportsInterface",
      "outputs": [
        {
          "internalType": "bool",
          "name": "",
          "type": "bool"
        }
      ],
      "stateMutability": "view",
      "type": "function"
    },
    {
      "inputs": [
        {
          "internalType": "string",
          "name": "_svg",
          "type": "string"
        }
      ],
      "name": "svgToImageURI",
      "outputs": [
        {
          "internalType": "string",
          "name": "",
          "type": "string"
        }
      ],
      "stateMutability": "pure",
      "type": "function"
    },
    {
      "inputs": [],
      "name": "symbol",
      "outputs": [
        {
          "internalType": "string",
          "name": "",
          "type": "string"
        }
      ],
      "stateMutability": "view",
      "type": "function"
    },
    {
      "inputs": [],
      "name": "tokenCounter",
      "outputs": [
        {
          "internalType": "uint256",
          "name": "",
          "type": "uint256"
        }
      ],
      "stateMutability": "view",
      "type": "function"
    },
    {
      "inputs": [
        {
          "internalType": "uint256",
          "name": "tokenId",
          "type": "uint256"
        }
      ],
      "name": "tokenURI",
      "outputs": [
        {
          "internalType": "string",
          "name": "",
          "type": "string"
        }
      ],
      "stateMutability": "view",
      "type": "function"
    },
    {
      "inputs": [
        {
          "internalType": "address",
          "name": "from",
          "type": "address"
        },
        {
          "internalType": "address",
          "name": "to",
          "type": "address"
        },
        {
          "internalType": "uint256",
          "name": "tokenId",
          "type": "uint256"
        }
      ],
      "name": "transferFrom",
      "outputs": [],
      "stateMutability": "nonpayable",
      "type": "function"
    }
  ],
  "transactionHash": "0xc4d283a53d5b8ba57fed87df16e10b847a3168f49f558eab69af7cd6f376860c",
  "args": [],
  "numDeployments": 1,
  "solcInputHash": "518bf6d4193b7ec2f33970e695e80f44",
  "bytecode": "0x60806040523480156200001157600080fd5b506040518060400160405280600781526020017f535647204e4654000000000000000000000000000000000000000000000000008152506040518060400160405280600681526020017f7376674e46540000000000000000000000000000000000000000000000000000815250816000908051906020019062000096929190620000c0565b508060019080519060200190620000af929190620000c0565b5050506000600781905550620001d5565b828054620000ce9062000170565b90600052602060002090601f016020900481019282620000f257600085556200013e565b82601f106200010d57805160ff19168380011785556200013e565b828001600101855582156200013e579182015b828111156200013d57825182559160200191906001019062000120565b5b5090506200014d919062000151565b5090565b5b808211156200016c57600081600090555060010162000152565b5090565b600060028204905060018216806200018957607f821691505b60208210811415620001a0576200019f620001a6565b5b50919050565b7f4e487b7100000000000000000000000000000000000000000000000000000000600052602260045260246000fd5b61321b80620001e56000396000f3fe608060405234801561001057600080fd5b506004361061010b5760003560e01c806370a08231116100a2578063b6a46b3b11610071578063b6a46b3b146102dc578063b88d4fde146102f8578063c87b56dd14610314578063d082e38114610344578063e985e9c5146103625761010b565b806370a082311461024257806371aee1931461027257806395d89b41146102a2578063a22cb465146102c05761010b565b806323b872dd116100de57806323b872dd146101aa57806330d871c6146101c657806342842e0e146101f65780636352211e146102125761010b565b806301ffc9a71461011057806306fdde0314610140578063081812fc1461015e578063095ea7b31461018e575b600080fd5b61012a60048036038101906101259190611fa9565b610392565b604051610137919061251b565b60405180910390f35b610148610474565b6040516101559190612536565b60405180910390f35b6101786004803603810190610173919061203c565b610506565b60405161018591906124b4565b60405180910390f35b6101a860048036038101906101a39190611f6d565b61058b565b005b6101c460048036038101906101bf9190611e67565b6106a3565b005b6101e060048036038101906101db9190611ffb565b610703565b6040516101ed9190612536565b60405180910390f35b610210600480360381019061020b9190611e67565b610796565b005b61022c6004803603810190610227919061203c565b6107b6565b60405161023991906124b4565b60405180910390f35b61025c60048036038101906102579190611e02565b610868565b6040516102699190612758565b60405180910390f35b61028c60048036038101906102879190611ffb565b610920565b6040516102999190612536565b60405180910390f35b6102aa610970565b6040516102b79190612536565b60405180910390f35b6102da60048036038101906102d59190611f31565b610a02565b005b6102f660048036038101906102f19190611ffb565b610a18565b005b610312600480360381019061030d9190611eb6565b610a9e565b005b61032e6004803603810190610329919061203c565b610b00565b60405161033b9190612536565b60405180910390f35b61034c610c52565b6040516103599190612758565b60405180910390f35b61037c60048036038101906103779190611e2b565b610c58565b604051610389919061251b565b60405180910390f35b60007f80ac58cd000000000000000000000000000000000000000000000000000000007bffffffffffffffffffffffffffffffffffffffffffffffffffffffff1916827bffffffffffffffffffffffffffffffffffffffffffffffffffffffff1916148061045d57507f5b5e139f000000000000000000000000000000000000000000000000000000007bffffffffffffffffffffffffffffffffffffffffffffffffffffffff1916827bffffffffffffffffffffffffffffffffffffffffffffffffffffffff1916145b8061046d575061046c82610cec565b5b9050919050565b60606000805461048390612a08565b80601f01602080910402602001604051908101604052809291908181526020018280546104af90612a08565b80156104fc5780601f106104d1576101008083540402835291602001916104fc565b820191906000526020600020905b8154815290600101906020018083116104df57829003601f168201915b5050505050905090565b600061051182610d56565b610550576040517f08c379a0000000000000000000000000000000000000000000000000000000008152600401610547906126d8565b60405180910390fd5b6004600083815260200190815260200160002060009054906101000a900473ffffffffffffffffffffffffffffffffffffffff169050919050565b6000610596826107b6565b90508073ffffffffffffffffffffffffffffffffffffffff168373ffffffffffffffffffffffffffffffffffffffff161415610607576040517f08c379a00000000000000000000000000000000000000000000000000000000081526004016105fe90612718565b60405180910390fd5b8073ffffffffffffffffffffffffffffffffffffffff16610626610dc2565b73ffffffffffffffffffffffffffffffffffffffff16148061065557506106548161064f610dc2565b610c58565b5b610694576040517f08c379a000000000000000000000000000000000000000000000000000000000815260040161068b90612618565b60405180910390fd5b61069e8383610dca565b505050565b6106b46106ae610dc2565b82610e83565b6106f3576040517f08c379a00000000000000000000000000000000000000000000000000000000081526004016106ea90612738565b60405180910390fd5b6106fe838383610f61565b505050565b606060006040518060400160405280601a81526020017f646174613a696d6167652f7376672b786d6c3b6261736536342c00000000000081525090506000610769846040516020016107559190612414565b6040516020818303038152906040526111c8565b9050818160405160200161077e92919061242b565b60405160208183030381529060405292505050919050565b6107b183838360405180602001604052806000815250610a9e565b505050565b6000806002600084815260200190815260200160002060009054906101000a900473ffffffffffffffffffffffffffffffffffffffff169050600073ffffffffffffffffffffffffffffffffffffffff168173ffffffffffffffffffffffffffffffffffffffff16141561085f576040517f08c379a000000000000000000000000000000000000000000000000000000000815260040161085690612658565b60405180910390fd5b80915050919050565b60008073ffffffffffffffffffffffffffffffffffffffff168273ffffffffffffffffffffffffffffffffffffffff1614156108d9576040517f08c379a00000000000000000000000000000000000000000000000000000000081526004016108d090612638565b60405180910390fd5b600360008373ffffffffffffffffffffffffffffffffffffffff1673ffffffffffffffffffffffffffffffffffffffff168152602001908152602001600020549050919050565b606061094a82604051602001610936919061244f565b6040516020818303038152906040526111c8565b60405160200161095a9190612492565b6040516020818303038152906040529050919050565b60606001805461097f90612a08565b80601f01602080910402602001604051908101604052809291908181526020018280546109ab90612a08565b80156109f85780601f106109cd576101008083540402835291602001916109f8565b820191906000526020600020905b8154815290600101906020018083116109db57829003601f168201915b5050505050905090565b610a14610a0d610dc2565b8383611367565b5050565b610a24336007546114d4565b6000610a2f82610703565b90506000610a3c82610920565b9050610a4a600754826114f2565b6007547ff5acc616aa8ecd00e5d76674d7812f9c3c3571d662c9fba4499deefa6d0be12d82604051610a7c9190612536565b60405180910390a26001600754610a93919061283d565b600781905550505050565b610aaf610aa9610dc2565b83610e83565b610aee576040517f08c379a0000000000000000000000000000000000000000000000000000000008152600401610ae590612738565b60405180910390fd5b610afa84848484611566565b50505050565b6060610b0b82610d56565b610b4a576040517f08c379a0000000000000000000000000000000000000000000000000000000008152600401610b41906126b8565b60405180910390fd5b6000600660008481526020019081526020016000208054610b6a90612a08565b80601f0160208091040260200160405190810160405280929190818152602001828054610b9690612a08565b8015610be35780601f10610bb857610100808354040283529160200191610be3565b820191906000526020600020905b815481529060010190602001808311610bc657829003601f168201915b505050505090506000610bf46115c2565b9050600081511415610c0a578192505050610c4d565b600082511115610c3f578082604051602001610c2792919061242b565b60405160208183030381529060405292505050610c4d565b610c48846115d9565b925050505b919050565b60075481565b6000600560008473ffffffffffffffffffffffffffffffffffffffff1673ffffffffffffffffffffffffffffffffffffffff16815260200190815260200160002060008373ffffffffffffffffffffffffffffffffffffffff1673ffffffffffffffffffffffffffffffffffffffff16815260200190815260200160002060009054906101000a900460ff16905092915050565b60007f01ffc9a7000000000000000000000000000000000000000000000000000000007bffffffffffffffffffffffffffffffffffffffffffffffffffffffff1916827bffffffffffffffffffffffffffffffffffffffffffffffffffffffff1916149050919050565b60008073ffffffffffffffffffffffffffffffffffffffff166002600084815260200190815260200160002060009054906101000a900473ffffffffffffffffffffffffffffffffffffffff1673ffffffffffffffffffffffffffffffffffffffff1614159050919050565b600033905090565b816004600083815260200190815260200160002060006101000a81548173ffffffffffffffffffffffffffffffffffffffff021916908373ffffffffffffffffffffffffffffffffffffffff160217905550808273ffffffffffffffffffffffffffffffffffffffff16610e3d836107b6565b73ffffffffffffffffffffffffffffffffffffffff167f8c5be1e5ebec7d5bd14f71427d1e84f3dd0314c0f7b2291e5b200ac8c7c3b92560405160405180910390a45050565b6000610e8e82610d56565b610ecd576040517f08c379a0000000000000000000000000000000000000000000000000000000008152600401610ec4906125f8565b60405180910390fd5b6000610ed8836107b6565b90508073ffffffffffffffffffffffffffffffffffffffff168473ffffffffffffffffffffffffffffffffffffffff161480610f4757508373ffffffffffffffffffffffffffffffffffffffff16610f2f84610506565b73ffffffffffffffffffffffffffffffffffffffff16145b80610f585750610f578185610c58565b5b91505092915050565b8273ffffffffffffffffffffffffffffffffffffffff16610f81826107b6565b73ffffffffffffffffffffffffffffffffffffffff1614610fd7576040517f08c379a0000000000000000000000000000000000000000000000000000000008152600401610fce90612578565b60405180910390fd5b600073ffffffffffffffffffffffffffffffffffffffff168273ffffffffffffffffffffffffffffffffffffffff161415611047576040517f08c379a000000000000000000000000000000000000000000000000000000000815260040161103e906125b8565b60405180910390fd5b611052838383611680565b61105d600082610dca565b6001600360008573ffffffffffffffffffffffffffffffffffffffff1673ffffffffffffffffffffffffffffffffffffffff16815260200190815260200160002060008282546110ad919061291e565b925050819055506001600360008473ffffffffffffffffffffffffffffffffffffffff1673ffffffffffffffffffffffffffffffffffffffff1681526020019081526020016000206000828254611104919061283d565b92505081905550816002600083815260200190815260200160002060006101000a81548173ffffffffffffffffffffffffffffffffffffffff021916908373ffffffffffffffffffffffffffffffffffffffff160217905550808273ffffffffffffffffffffffffffffffffffffffff168473ffffffffffffffffffffffffffffffffffffffff167fddf252ad1be2c89b69c2b068fc378daa952ba7f163c4a11628f55a4df523b3ef60405160405180910390a46111c3838383611685565b505050565b60606000825114156111eb57604051806020016040528060008152509050611362565b60006040518060600160405280604081526020016131a6604091399050600060036002855161121a919061283d565b6112249190612893565b600461123091906128c4565b90506000602082611241919061283d565b67ffffffffffffffff811115611280577f4e487b7100000000000000000000000000000000000000000000000000000000600052604160045260246000fd5b6040519080825280601f01601f1916602001820160405280156112b25781602001600182028036833780820191505090505b509050818152600183018586518101602084015b81831015611321576003830192508251603f8160121c168501518253600182019150603f81600c1c168501518253600182019150603f8160061c168501518253600182019150603f81168501518253600182019150506112c6565b60038951066001811461133b576002811461134b57611356565b613d3d60f01b6002830352611356565b603d60f81b60018303525b50505050508093505050505b919050565b8173ffffffffffffffffffffffffffffffffffffffff168373ffffffffffffffffffffffffffffffffffffffff1614156113d6576040517f08c379a00000000000000000000000000000000000000000000000000000000081526004016113cd906125d8565b60405180910390fd5b80600560008573ffffffffffffffffffffffffffffffffffffffff1673ffffffffffffffffffffffffffffffffffffffff16815260200190815260200160002060008473ffffffffffffffffffffffffffffffffffffffff1673ffffffffffffffffffffffffffffffffffffffff16815260200190815260200160002060006101000a81548160ff0219169083151502179055508173ffffffffffffffffffffffffffffffffffffffff168373ffffffffffffffffffffffffffffffffffffffff167f17307eab39ab6107e8899845ad3d59bd9653f200f220920489ca2b5937696c31836040516114c7919061251b565b60405180910390a3505050565b6114ee82826040518060200160405280600081525061168a565b5050565b6114fb82610d56565b61153a576040517f08c379a000000000000000000000000000000000000000000000000000000000815260040161153190612678565b60405180910390fd5b80600660008481526020019081526020016000209080519060200190611561929190611c26565b505050565b611571848484610f61565b61157d848484846116e5565b6115bc576040517f08c379a00000000000000000000000000000000000000000000000000000000081526004016115b390612558565b60405180910390fd5b50505050565b606060405180602001604052806000815250905090565b60606115e482610d56565b611623576040517f08c379a000000000000000000000000000000000000000000000000000000000815260040161161a906126f8565b60405180910390fd5b600061162d6115c2565b9050600081511161164d5760405180602001604052806000815250611678565b806116578461187c565b60405160200161166892919061242b565b6040516020818303038152906040525b915050919050565b505050565b505050565b6116948383611a29565b6116a160008484846116e5565b6116e0576040517f08c379a00000000000000000000000000000000000000000000000000000000081526004016116d790612558565b60405180910390fd5b505050565b60006117068473ffffffffffffffffffffffffffffffffffffffff16611c03565b1561186f578373ffffffffffffffffffffffffffffffffffffffff1663150b7a0261172f610dc2565b8786866040518563ffffffff1660e01b815260040161175194939291906124cf565b602060405180830381600087803b15801561176b57600080fd5b505af192505050801561179c57506040513d601f19601f820116820180604052508101906117999190611fd2565b60015b61181f573d80600081146117cc576040519150601f19603f3d011682016040523d82523d6000602084013e6117d1565b606091505b50600081511415611817576040517f08c379a000000000000000000000000000000000000000000000000000000000815260040161180e90612558565b60405180910390fd5b805181602001fd5b63150b7a0260e01b7bffffffffffffffffffffffffffffffffffffffffffffffffffffffff1916817bffffffffffffffffffffffffffffffffffffffffffffffffffffffff191614915050611874565b600190505b949350505050565b606060008214156118c4576040518060400160405280600181526020017f30000000000000000000000000000000000000000000000000000000000000008152509050611a24565b600082905060005b600082146118f65780806118df90612a6b565b915050600a826118ef9190612893565b91506118cc565b60008167ffffffffffffffff811115611938577f4e487b7100000000000000000000000000000000000000000000000000000000600052604160045260246000fd5b6040519080825280601f01601f19166020018201604052801561196a5781602001600182028036833780820191505090505b5090505b60008514611a1d57600182611983919061291e565b9150600a856119929190612ab4565b603061199e919061283d565b60f81b8183815181106119da577f4e487b7100000000000000000000000000000000000000000000000000000000600052603260045260246000fd5b60200101907effffffffffffffffffffffffffffffffffffffffffffffffffffffffffffff1916908160001a905350600a85611a169190612893565b945061196e565b8093505050505b919050565b600073ffffffffffffffffffffffffffffffffffffffff168273ffffffffffffffffffffffffffffffffffffffff161415611a99576040517f08c379a0000000000000000000000000000000000000000000000000000000008152600401611a9090612698565b60405180910390fd5b611aa281610d56565b15611ae2576040517f08c379a0000000000000000000000000000000000000000000000000000000008152600401611ad990612598565b60405180910390fd5b611aee60008383611680565b6001600360008473ffffffffffffffffffffffffffffffffffffffff1673ffffffffffffffffffffffffffffffffffffffff1681526020019081526020016000206000828254611b3e919061283d565b92505081905550816002600083815260200190815260200160002060006101000a81548173ffffffffffffffffffffffffffffffffffffffff021916908373ffffffffffffffffffffffffffffffffffffffff160217905550808273ffffffffffffffffffffffffffffffffffffffff16600073ffffffffffffffffffffffffffffffffffffffff167fddf252ad1be2c89b69c2b068fc378daa952ba7f163c4a11628f55a4df523b3ef60405160405180910390a4611bff60008383611685565b5050565b6000808273ffffffffffffffffffffffffffffffffffffffff163b119050919050565b828054611c3290612a08565b90600052602060002090601f016020900481019282611c545760008555611c9b565b82601f10611c6d57805160ff1916838001178555611c9b565b82800160010185558215611c9b579182015b82811115611c9a578251825591602001919060010190611c7f565b5b509050611ca89190611cac565b5090565b5b80821115611cc5576000816000905550600101611cad565b5090565b6000611cdc611cd784612798565b612773565b905082815260208101848484011115611cf457600080fd5b611cff8482856129c6565b509392505050565b6000611d1a611d15846127c9565b612773565b905082815260208101848484011115611d3257600080fd5b611d3d8482856129c6565b509392505050565b600081359050611d5481613149565b92915050565b600081359050611d6981613160565b92915050565b600081359050611d7e81613177565b92915050565b600081519050611d9381613177565b92915050565b600082601f830112611daa57600080fd5b8135611dba848260208601611cc9565b91505092915050565b600082601f830112611dd457600080fd5b8135611de4848260208601611d07565b91505092915050565b600081359050611dfc8161318e565b92915050565b600060208284031215611e1457600080fd5b6000611e2284828501611d45565b91505092915050565b60008060408385031215611e3e57600080fd5b6000611e4c85828601611d45565b9250506020611e5d85828601611d45565b9150509250929050565b600080600060608486031215611e7c57600080fd5b6000611e8a86828701611d45565b9350506020611e9b86828701611d45565b9250506040611eac86828701611ded565b9150509250925092565b60008060008060808587031215611ecc57600080fd5b6000611eda87828801611d45565b9450506020611eeb87828801611d45565b9350506040611efc87828801611ded565b925050606085013567ffffffffffffffff811115611f1957600080fd5b611f2587828801611d99565b91505092959194509250565b60008060408385031215611f4457600080fd5b6000611f5285828601611d45565b9250506020611f6385828601611d5a565b9150509250929050565b60008060408385031215611f8057600080fd5b6000611f8e85828601611d45565b9250506020611f9f85828601611ded565b9150509250929050565b600060208284031215611fbb57600080fd5b6000611fc984828501611d6f565b91505092915050565b600060208284031215611fe457600080fd5b6000611ff284828501611d84565b91505092915050565b60006020828403121561200d57600080fd5b600082013567ffffffffffffffff81111561202757600080fd5b61203384828501611dc3565b91505092915050565b60006020828403121561204e57600080fd5b600061205c84828501611ded565b91505092915050565b61206e81612952565b82525050565b61207d81612964565b82525050565b600061208e826127fa565b6120988185612810565b93506120a88185602086016129d5565b6120b181612ba1565b840191505092915050565b60006120c782612805565b6120d18185612821565b93506120e18185602086016129d5565b6120ea81612ba1565b840191505092915050565b600061210082612805565b61210a8185612832565b935061211a8185602086016129d5565b80840191505092915050565b6000612133600983612832565b915061213e82612bb2565b600982019050919050565b6000612156603283612821565b915061216182612bdb565b604082019050919050565b6000612179602583612821565b915061218482612c2a565b604082019050919050565b600061219c601c83612821565b91506121a782612c79565b602082019050919050565b60006121bf602483612821565b91506121ca82612ca2565b604082019050919050565b60006121e2601983612821565b91506121ed82612cf1565b602082019050919050565b6000612205602c83612821565b915061221082612d1a565b604082019050919050565b6000612228600783612832565b915061223382612d69565b600782019050919050565b600061224b603883612821565b915061225682612d92565b604082019050919050565b600061226e602a83612821565b915061227982612de1565b604082019050919050565b6000612291602983612821565b915061229c82612e30565b604082019050919050565b60006122b4602e83612821565b91506122bf82612e7f565b604082019050919050565b60006122d7600283612832565b91506122e282612ece565b600282019050919050565b60006122fa602083612821565b915061230582612ef7565b602082019050919050565b600061231d603183612821565b915061232882612f20565b604082019050919050565b6000612340602c83612821565b915061234b82612f6f565b604082019050919050565b6000612363602f83612821565b915061236e82612fbe565b604082019050919050565b6000612386604383612832565b91506123918261300d565b604382019050919050565b60006123a9602183612821565b91506123b482613082565b604082019050919050565b60006123cc601d83612832565b91506123d7826130d1565b601d82019050919050565b60006123ef603183612821565b91506123fa826130fa565b604082019050919050565b61240e816129bc565b82525050565b600061242082846120f5565b915081905092915050565b600061243782856120f5565b915061244382846120f5565b91508190509392505050565b600061245a82612126565b91506124658261221b565b915061247082612379565b915061247c82846120f5565b9150612487826122ca565b915081905092915050565b600061249d826123bf565b91506124a982846120f5565b915081905092915050565b60006020820190506124c96000830184612065565b92915050565b60006080820190506124e46000830187612065565b6124f16020830186612065565b6124fe6040830185612405565b81810360608301526125108184612083565b905095945050505050565b60006020820190506125306000830184612074565b92915050565b6000602082019050818103600083015261255081846120bc565b905092915050565b6000602082019050818103600083015261257181612149565b9050919050565b600060208201905081810360008301526125918161216c565b9050919050565b600060208201905081810360008301526125b18161218f565b9050919050565b600060208201905081810360008301526125d1816121b2565b9050919050565b600060208201905081810360008301526125f1816121d5565b9050919050565b60006020820190508181036000830152612611816121f8565b9050919050565b600060208201905081810360008301526126318161223e565b9050919050565b6000602082019050818103600083015261265181612261565b9050919050565b6000602082019050818103600083015261267181612284565b9050919050565b60006020820190508181036000830152612691816122a7565b9050919050565b600060208201905081810360008301526126b1816122ed565b9050919050565b600060208201905081810360008301526126d181612310565b9050919050565b600060208201905081810360008301526126f181612333565b9050919050565b6000602082019050818103600083015261271181612356565b9050919050565b600060208201905081810360008301526127318161239c565b9050919050565b60006020820190508181036000830152612751816123e2565b9050919050565b600060208201905061276d6000830184612405565b92915050565b600061277d61278e565b90506127898282612a3a565b919050565b6000604051905090565b600067ffffffffffffffff8211156127b3576127b2612b72565b5b6127bc82612ba1565b9050602081019050919050565b600067ffffffffffffffff8211156127e4576127e3612b72565b5b6127ed82612ba1565b9050602081019050919050565b600081519050919050565b600081519050919050565b600082825260208201905092915050565b600082825260208201905092915050565b600081905092915050565b6000612848826129bc565b9150612853836129bc565b9250827fffffffffffffffffffffffffffffffffffffffffffffffffffffffffffffffff0382111561288857612887612ae5565b5b828201905092915050565b600061289e826129bc565b91506128a9836129bc565b9250826128b9576128b8612b14565b5b828204905092915050565b60006128cf826129bc565b91506128da836129bc565b9250817fffffffffffffffffffffffffffffffffffffffffffffffffffffffffffffffff048311821515161561291357612912612ae5565b5b828202905092915050565b6000612929826129bc565b9150612934836129bc565b92508282101561294757612946612ae5565b5b828203905092915050565b600061295d8261299c565b9050919050565b60008115159050919050565b60007fffffffff0000000000000000000000000000000000000000000000000000000082169050919050565b600073ffffffffffffffffffffffffffffffffffffffff82169050919050565b6000819050919050565b82818337600083830152505050565b60005b838110156129f35780820151818401526020810190506129d8565b83811115612a02576000848401525b50505050565b60006002820490506001821680612a2057607f821691505b60208210811415612a3457612a33612b43565b5b50919050565b612a4382612ba1565b810181811067ffffffffffffffff82111715612a6257612a61612b72565b5b80604052505050565b6000612a76826129bc565b91507fffffffffffffffffffffffffffffffffffffffffffffffffffffffffffffffff821415612aa957612aa8612ae5565b5b600182019050919050565b6000612abf826129bc565b9150612aca836129bc565b925082612ada57612ad9612b14565b5b828206905092915050565b7f4e487b7100000000000000000000000000000000000000000000000000000000600052601160045260246000fd5b7f4e487b7100000000000000000000000000000000000000000000000000000000600052601260045260246000fd5b7f4e487b7100000000000000000000000000000000000000000000000000000000600052602260045260246000fd5b7f4e487b7100000000000000000000000000000000000000000000000000000000600052604160045260246000fd5b6000601f19601f8301169050919050565b7f7b226e616d65223a220000000000000000000000000000000000000000000000600082015250565b7f4552433732313a207472616e7366657220746f206e6f6e20455243373231526560008201527f63656976657220696d706c656d656e7465720000000000000000000000000000602082015250565b7f4552433732313a207472616e736665722066726f6d20696e636f72726563742060008201527f6f776e6572000000000000000000000000000000000000000000000000000000602082015250565b7f4552433732313a20746f6b656e20616c7265616479206d696e74656400000000600082015250565b7f4552433732313a207472616e7366657220746f20746865207a65726f2061646460008201527f7265737300000000000000000000000000000000000000000000000000000000602082015250565b7f4552433732313a20617070726f766520746f2063616c6c657200000000000000600082015250565b7f4552433732313a206f70657261746f7220717565727920666f72206e6f6e657860008201527f697374656e7420746f6b656e0000000000000000000000000000000000000000602082015250565b7f535647204e465400000000000000000000000000000000000000000000000000600082015250565b7f4552433732313a20617070726f76652063616c6c6572206973206e6f74206f7760008201527f6e6572206e6f7220617070726f76656420666f7220616c6c0000000000000000602082015250565b7f4552433732313a2062616c616e636520717565727920666f7220746865207a6560008201527f726f206164647265737300000000000000000000000000000000000000000000602082015250565b7f4552433732313a206f776e657220717565727920666f72206e6f6e657869737460008201527f656e7420746f6b656e0000000000000000000000000000000000000000000000602082015250565b7f45524337323155524953746f726167653a2055524920736574206f66206e6f6e60008201527f6578697374656e7420746f6b656e000000000000000000000000000000000000602082015250565b7f227d000000000000000000000000000000000000000000000000000000000000600082015250565b7f4552433732313a206d696e7420746f20746865207a65726f2061646472657373600082015250565b7f45524337323155524953746f726167653a2055524920717565727920666f722060008201527f6e6f6e6578697374656e7420746f6b656e000000000000000000000000000000602082015250565b7f4552433732313a20617070726f76656420717565727920666f72206e6f6e657860008201527f697374656e7420746f6b656e0000000000000000000000000000000000000000602082015250565b7f4552433732314d657461646174613a2055524920717565727920666f72206e6f60008201527f6e6578697374656e7420746f6b656e0000000000000000000000000000000000602082015250565b7f222c20226465736372697074696f6e223a22416e204e4654206261736564206f60008201527f6e2053564721222c202261747472696275746573223a22222c2022696d61676560208201527f223a220000000000000000000000000000000000000000000000000000000000604082015250565b7f4552433732313a20617070726f76616c20746f2063757272656e74206f776e6560008201527f7200000000000000000000000000000000000000000000000000000000000000602082015250565b7f646174613a6170706c69636174696f6e2f6a736f6e3b6261736536342c000000600082015250565b7f4552433732313a207472616e736665722063616c6c6572206973206e6f74206f60008201527f776e6572206e6f7220617070726f766564000000000000000000000000000000602082015250565b61315281612952565b811461315d57600080fd5b50565b61316981612964565b811461317457600080fd5b50565b61318081612970565b811461318b57600080fd5b50565b613197816129bc565b81146131a257600080fd5b5056fe4142434445464748494a4b4c4d4e4f505152535455565758595a6162636465666768696a6b6c6d6e6f707172737475767778797a303132333435363738392b2fa2646970667358221220437a091d06a10c0e7876f2c2f5c35d890f14dcf7dac82cae05075d9c8321ddf564736f6c63430008040033",
  "devdoc": {
    "kind": "dev",
    "methods": {
      "approve(address,uint256)": {
        "details": "See {IERC721-approve}."
      },
      "balanceOf(address)": {
        "details": "See {IERC721-balanceOf}."
      },
      "getApproved(uint256)": {
        "details": "See {IERC721-getApproved}."
      },
      "isApprovedForAll(address,address)": {
        "details": "See {IERC721-isApprovedForAll}."
      },
      "name()": {
        "details": "See {IERC721Metadata-name}."
      },
      "ownerOf(uint256)": {
        "details": "See {IERC721-ownerOf}."
      },
      "safeTransferFrom(address,address,uint256)": {
        "details": "See {IERC721-safeTransferFrom}."
      },
      "safeTransferFrom(address,address,uint256,bytes)": {
        "details": "See {IERC721-safeTransferFrom}."
      },
      "setApprovalForAll(address,bool)": {
        "details": "See {IERC721-setApprovalForAll}."
      },
      "supportsInterface(bytes4)": {
        "details": "See {IERC165-supportsInterface}."
      },
      "symbol()": {
        "details": "See {IERC721Metadata-symbol}."
      },
      "tokenURI(uint256)": {
        "details": "See {IERC721Metadata-tokenURI}."
      },
      "transferFrom(address,address,uint256)": {
        "details": "See {IERC721-transferFrom}."
      }
    },
    "version": 1
  },
  "userdoc": {
    "kind": "user",
    "methods": {},
    "version": 1
  },
  "storageLayout": {
    "storage": [
      {
        "astId": 25,
        "contract": "contracts/SVGNFT.sol:SVGNFT",
        "label": "_name",
        "offset": 0,
        "slot": "0",
        "type": "t_string_storage"
      },
      {
        "astId": 27,
        "contract": "contracts/SVGNFT.sol:SVGNFT",
        "label": "_symbol",
        "offset": 0,
        "slot": "1",
        "type": "t_string_storage"
      },
      {
        "astId": 31,
        "contract": "contracts/SVGNFT.sol:SVGNFT",
        "label": "_owners",
        "offset": 0,
        "slot": "2",
        "type": "t_mapping(t_uint256,t_address)"
      },
      {
        "astId": 35,
        "contract": "contracts/SVGNFT.sol:SVGNFT",
        "label": "_balances",
        "offset": 0,
        "slot": "3",
        "type": "t_mapping(t_address,t_uint256)"
      },
      {
        "astId": 39,
        "contract": "contracts/SVGNFT.sol:SVGNFT",
        "label": "_tokenApprovals",
        "offset": 0,
        "slot": "4",
        "type": "t_mapping(t_uint256,t_address)"
      },
      {
        "astId": 45,
        "contract": "contracts/SVGNFT.sol:SVGNFT",
        "label": "_operatorApprovals",
        "offset": 0,
        "slot": "5",
        "type": "t_mapping(t_address,t_mapping(t_address,t_bool))"
      },
      {
        "astId": 1012,
        "contract": "contracts/SVGNFT.sol:SVGNFT",
        "label": "_tokenURIs",
        "offset": 0,
        "slot": "6",
        "type": "t_mapping(t_uint256,t_string_storage)"
      },
      {
        "astId": 1834,
        "contract": "contracts/SVGNFT.sol:SVGNFT",
        "label": "tokenCounter",
        "offset": 0,
        "slot": "7",
        "type": "t_uint256"
      }
    ],
    "types": {
      "t_address": {
        "encoding": "inplace",
        "label": "address",
        "numberOfBytes": "20"
      },
      "t_bool": {
        "encoding": "inplace",
        "label": "bool",
        "numberOfBytes": "1"
      },
      "t_mapping(t_address,t_bool)": {
        "encoding": "mapping",
        "key": "t_address",
        "label": "mapping(address => bool)",
        "numberOfBytes": "32",
        "value": "t_bool"
      },
      "t_mapping(t_address,t_mapping(t_address,t_bool))": {
        "encoding": "mapping",
        "key": "t_address",
        "label": "mapping(address => mapping(address => bool))",
        "numberOfBytes": "32",
        "value": "t_mapping(t_address,t_bool)"
      },
      "t_mapping(t_address,t_uint256)": {
        "encoding": "mapping",
        "key": "t_address",
        "label": "mapping(address => uint256)",
        "numberOfBytes": "32",
        "value": "t_uint256"
      },
      "t_mapping(t_uint256,t_address)": {
        "encoding": "mapping",
        "key": "t_uint256",
        "label": "mapping(uint256 => address)",
        "numberOfBytes": "32",
        "value": "t_address"
      },
      "t_mapping(t_uint256,t_string_storage)": {
        "encoding": "mapping",
        "key": "t_uint256",
        "label": "mapping(uint256 => string)",
        "numberOfBytes": "32",
        "value": "t_string_storage"
      },
      "t_string_storage": {
        "encoding": "bytes",
        "label": "string",
        "numberOfBytes": "32"
      },
      "t_uint256": {
        "encoding": "inplace",
        "label": "uint256",
        "numberOfBytes": "32"
      }
    }
  }
}